{
  "_format": "hh-sol-artifact-1",
  "contractName": "WrappedBCT",
  "sourceName": "contracts/WrappedBCT.sol",
  "abi": [
    {
      "inputs": [
        {
          "internalType": "address",
          "name": "_wrappedToken",
          "type": "address"
        },
        {
          "internalType": "uint256",
          "name": "_tokenId",
          "type": "uint256"
        }
      ],
      "stateMutability": "nonpayable",
      "type": "constructor"
    },
    {
      "anonymous": false,
      "inputs": [
        {
          "indexed": true,
          "internalType": "address",
          "name": "previousOwner",
          "type": "address"
        },
        {
          "indexed": true,
          "internalType": "address",
          "name": "newOwner",
          "type": "address"
        }
      ],
      "name": "OwnershipTransferred",
      "type": "event"
    },
    {
      "inputs": [],
      "name": "getTokenId",
      "outputs": [
        {
          "internalType": "uint256",
          "name": "",
          "type": "uint256"
        }
      ],
      "stateMutability": "view",
      "type": "function"
    },
    {
      "inputs": [],
      "name": "owner",
      "outputs": [
        {
          "internalType": "address",
          "name": "",
          "type": "address"
        }
      ],
      "stateMutability": "view",
      "type": "function"
    },
    {
      "inputs": [],
      "name": "renounceOwnership",
      "outputs": [],
      "stateMutability": "nonpayable",
      "type": "function"
    },
    {
      "inputs": [],
      "name": "tokenId",
      "outputs": [
        {
          "internalType": "uint256",
          "name": "",
          "type": "uint256"
        }
      ],
      "stateMutability": "view",
      "type": "function"
    },
    {
      "inputs": [
        {
          "internalType": "address",
          "name": "newOwner",
          "type": "address"
        }
      ],
      "name": "transferOwnership",
      "outputs": [],
      "stateMutability": "nonpayable",
      "type": "function"
    },
    {
      "inputs": [
        {
          "internalType": "address",
          "name": "user",
          "type": "address"
        },
        {
          "internalType": "uint256",
          "name": "amount",
          "type": "uint256"
        }
      ],
      "name": "unwrap",
      "outputs": [],
      "stateMutability": "nonpayable",
      "type": "function"
    },
    {
      "inputs": [
        {
          "internalType": "address",
          "name": "user",
          "type": "address"
        },
        {
          "internalType": "uint256",
          "name": "amount",
          "type": "uint256"
        }
      ],
      "name": "wrap",
      "outputs": [],
      "stateMutability": "nonpayable",
      "type": "function"
    },
    {
      "inputs": [],
      "name": "wrappedToken",
      "outputs": [
        {
          "internalType": "contract IERC20",
          "name": "",
          "type": "address"
        }
      ],
      "stateMutability": "view",
      "type": "function"
    }
  ],
  "bytecode": "0x608060405234801561001057600080fd5b5060405162000bea38038062000bea83398181016040528101906100349190610195565b61005061004561009f60201b60201c565b6100a760201b60201c565b81600160006101000a81548173ffffffffffffffffffffffffffffffffffffffff021916908373ffffffffffffffffffffffffffffffffffffffff16021790555080600281905550505061023b565b600033905090565b60008060009054906101000a900473ffffffffffffffffffffffffffffffffffffffff169050816000806101000a81548173ffffffffffffffffffffffffffffffffffffffff021916908373ffffffffffffffffffffffffffffffffffffffff1602179055508173ffffffffffffffffffffffffffffffffffffffff168173ffffffffffffffffffffffffffffffffffffffff167f8be0079c531659141344cd1fd0a4f28419497f9722a3daafe3b4186f6b6457e060405160405180910390a35050565b60008151905061017a8161020d565b92915050565b60008151905061018f81610224565b92915050565b600080604083850312156101a857600080fd5b60006101b68582860161016b565b92505060206101c785828601610180565b9150509250929050565b60006101dc826101e3565b9050919050565b600073ffffffffffffffffffffffffffffffffffffffff82169050919050565b6000819050919050565b610216816101d1565b811461022157600080fd5b50565b61022d81610203565b811461023857600080fd5b50565b61099f806200024b6000396000f3fe608060405234801561001057600080fd5b50600436106100885760003560e01c80638da5cb5b1161005b5780638da5cb5b146100ef578063996c6cc31461010d578063bf376c7a1461012b578063f2fde38b1461014757610088565b8063010a38f51461008d57806317d70f7c146100ab57806339f47693146100c9578063715018a6146100e5575b600080fd5b610095610163565b6040516100a291906107eb565b60405180910390f35b6100b361016d565b6040516100c091906107eb565b60405180910390f35b6100e360048036038101906100de91906105fa565b610173565b005b6100ed61026d565b005b6100f7610281565b60405161010491906106f5565b60405180910390f35b6101156102aa565b6040516101229190610770565b60405180910390f35b610145600480360381019061014091906105fa565b6102d0565b005b610161600480360381019061015c91906105d1565b6103c4565b005b6000600254905090565b60025481565b61017b610448565b600160009054906101000a900473ffffffffffffffffffffffffffffffffffffffff1673ffffffffffffffffffffffffffffffffffffffff1663a9059cbb83836040518363ffffffff1660e01b81526004016101d8929190610747565b602060405180830381600087803b1580156101f257600080fd5b505af1158015610206573d6000803e3d6000fd5b505050506040513d601f19601f8201168201806040525081019061022a9190610636565b610269576040517f08c379a0000000000000000000000000000000000000000000000000000000008152600401610260906107cb565b60405180910390fd5b5050565b610275610448565b61027f60006104c6565b565b60008060009054906101000a900473ffffffffffffffffffffffffffffffffffffffff16905090565b600160009054906101000a900473ffffffffffffffffffffffffffffffffffffffff1681565b600160009054906101000a900473ffffffffffffffffffffffffffffffffffffffff1673ffffffffffffffffffffffffffffffffffffffff166323b872dd8330846040518463ffffffff1660e01b815260040161032f93929190610710565b602060405180830381600087803b15801561034957600080fd5b505af115801561035d573d6000803e3d6000fd5b505050506040513d601f19601f820116820180604052508101906103819190610636565b6103c0576040517f08c379a00000000000000000000000000000000000000000000000000000000081526004016103b7906107cb565b60405180910390fd5b5050565b6103cc610448565b600073ffffffffffffffffffffffffffffffffffffffff168173ffffffffffffffffffffffffffffffffffffffff16141561043c576040517f08c379a00000000000000000000000000000000000000000000000000000000081526004016104339061078b565b60405180910390fd5b610445816104c6565b50565b61045061058a565b73ffffffffffffffffffffffffffffffffffffffff1661046e610281565b73ffffffffffffffffffffffffffffffffffffffff16146104c4576040517f08c379a00000000000000000000000000000000000000000000000000000000081526004016104bb906107ab565b60405180910390fd5b565b60008060009054906101000a900473ffffffffffffffffffffffffffffffffffffffff169050816000806101000a81548173ffffffffffffffffffffffffffffffffffffffff021916908373ffffffffffffffffffffffffffffffffffffffff1602179055508173ffffffffffffffffffffffffffffffffffffffff168173ffffffffffffffffffffffffffffffffffffffff167f8be0079c531659141344cd1fd0a4f28419497f9722a3daafe3b4186f6b6457e060405160405180910390a35050565b600033905090565b6000813590506105a181610924565b92915050565b6000815190506105b68161093b565b92915050565b6000813590506105cb81610952565b92915050565b6000602082840312156105e357600080fd5b60006105f184828501610592565b91505092915050565b6000806040838503121561060d57600080fd5b600061061b85828601610592565b925050602061062c858286016105bc565b9150509250929050565b60006020828403121561064857600080fd5b6000610656848285016105a7565b91505092915050565b61066881610817565b82525050565b6106778161085f565b82525050565b600061068a602683610806565b915061069582610883565b604082019050919050565b60006106ad602083610806565b91506106b8826108d2565b602082019050919050565b60006106d0601b83610806565b91506106db826108fb565b602082019050919050565b6106ef81610855565b82525050565b600060208201905061070a600083018461065f565b92915050565b6000606082019050610725600083018661065f565b610732602083018561065f565b61073f60408301846106e6565b949350505050565b600060408201905061075c600083018561065f565b61076960208301846106e6565b9392505050565b6000602082019050610785600083018461066e565b92915050565b600060208201905081810360008301526107a48161067d565b9050919050565b600060208201905081810360008301526107c4816106a0565b9050919050565b600060208201905081810360008301526107e4816106c3565b9050919050565b600060208201905061080060008301846106e6565b92915050565b600082825260208201905092915050565b600061082282610835565b9050919050565b60008115159050919050565b600073ffffffffffffffffffffffffffffffffffffffff82169050919050565b6000819050919050565b600061086a82610871565b9050919050565b600061087c82610835565b9050919050565b7f4f776e61626c653a206e6577206f776e657220697320746865207a65726f206160008201527f6464726573730000000000000000000000000000000000000000000000000000602082015250565b7f4f776e61626c653a2063616c6c6572206973206e6f7420746865206f776e6572600082015250565b7f577261707065644243543a205472616e73666572206661696c65640000000000600082015250565b61092d81610817565b811461093857600080fd5b50565b61094481610829565b811461094f57600080fd5b50565b61095b81610855565b811461096657600080fd5b5056fea264697066735822122067e8f750d7edcf507a14c5c01c1b6c814cc90e9b3a2cca329b7469668ed94fa864736f6c63430008040033",
  "linkReferences": {},
  "deployedLinkReferences": {}
}