{
  "contractName": "ERC1155Token",
  "abi": [
    {
      "inputs": [
        {
          "internalType": "string",
          "name": "uri",
          "type": "string"
        }
      ],
      "stateMutability": "nonpayable",
      "type": "constructor"
    },
    {
      "anonymous": false,
      "inputs": [
        {
          "indexed": true,
          "internalType": "address",
          "name": "account",
          "type": "address"
        },
        {
          "indexed": true,
          "internalType": "address",
          "name": "operator",
          "type": "address"
        },
        {
          "indexed": false,
          "internalType": "bool",
          "name": "approved",
          "type": "bool"
        }
      ],
      "name": "ApprovalForAll",
      "type": "event"
    },
    {
      "anonymous": false,
      "inputs": [
        {
          "indexed": true,
          "internalType": "address",
          "name": "previousOwner",
          "type": "address"
        },
        {
          "indexed": true,
          "internalType": "address",
          "name": "newOwner",
          "type": "address"
        }
      ],
      "name": "OwnershipTransferred",
      "type": "event"
    },
    {
      "anonymous": false,
      "inputs": [
        {
          "indexed": true,
          "internalType": "address",
          "name": "operator",
          "type": "address"
        },
        {
          "indexed": true,
          "internalType": "address",
          "name": "from",
          "type": "address"
        },
        {
          "indexed": true,
          "internalType": "address",
          "name": "to",
          "type": "address"
        },
        {
          "indexed": false,
          "internalType": "uint256[]",
          "name": "ids",
          "type": "uint256[]"
        },
        {
          "indexed": false,
          "internalType": "uint256[]",
          "name": "values",
          "type": "uint256[]"
        }
      ],
      "name": "TransferBatch",
      "type": "event"
    },
    {
      "anonymous": false,
      "inputs": [
        {
          "indexed": true,
          "internalType": "address",
          "name": "operator",
          "type": "address"
        },
        {
          "indexed": true,
          "internalType": "address",
          "name": "from",
          "type": "address"
        },
        {
          "indexed": true,
          "internalType": "address",
          "name": "to",
          "type": "address"
        },
        {
          "indexed": false,
          "internalType": "uint256",
          "name": "id",
          "type": "uint256"
        },
        {
          "indexed": false,
          "internalType": "uint256",
          "name": "value",
          "type": "uint256"
        }
      ],
      "name": "TransferSingle",
      "type": "event"
    },
    {
      "anonymous": false,
      "inputs": [
        {
          "indexed": false,
          "internalType": "string",
          "name": "value",
          "type": "string"
        },
        {
          "indexed": true,
          "internalType": "uint256",
          "name": "id",
          "type": "uint256"
        }
      ],
      "name": "URI",
      "type": "event"
    },
    {
      "inputs": [
        {
          "internalType": "address",
          "name": "account",
          "type": "address"
        },
        {
          "internalType": "uint256",
          "name": "id",
          "type": "uint256"
        }
      ],
      "name": "balanceOf",
      "outputs": [
        {
          "internalType": "uint256",
          "name": "",
          "type": "uint256"
        }
      ],
      "stateMutability": "view",
      "type": "function",
      "constant": true
    },
    {
      "inputs": [
        {
          "internalType": "address[]",
          "name": "accounts",
          "type": "address[]"
        },
        {
          "internalType": "uint256[]",
          "name": "ids",
          "type": "uint256[]"
        }
      ],
      "name": "balanceOfBatch",
      "outputs": [
        {
          "internalType": "uint256[]",
          "name": "",
          "type": "uint256[]"
        }
      ],
      "stateMutability": "view",
      "type": "function",
      "constant": true
    },
    {
      "inputs": [
        {
          "internalType": "address",
          "name": "account",
          "type": "address"
        },
        {
          "internalType": "address",
          "name": "operator",
          "type": "address"
        }
      ],
      "name": "isApprovedForAll",
      "outputs": [
        {
          "internalType": "bool",
          "name": "",
          "type": "bool"
        }
      ],
      "stateMutability": "view",
      "type": "function",
      "constant": true
    },
    {
      "inputs": [],
      "name": "owner",
      "outputs": [
        {
          "internalType": "address",
          "name": "",
          "type": "address"
        }
      ],
      "stateMutability": "view",
      "type": "function",
      "constant": true
    },
    {
      "inputs": [],
      "name": "renounceOwnership",
      "outputs": [],
      "stateMutability": "nonpayable",
      "type": "function"
    },
    {
      "inputs": [
        {
          "internalType": "address",
          "name": "from",
          "type": "address"
        },
        {
          "internalType": "address",
          "name": "to",
          "type": "address"
        },
        {
          "internalType": "uint256[]",
          "name": "ids",
          "type": "uint256[]"
        },
        {
          "internalType": "uint256[]",
          "name": "amounts",
          "type": "uint256[]"
        },
        {
          "internalType": "bytes",
          "name": "data",
          "type": "bytes"
        }
      ],
      "name": "safeBatchTransferFrom",
      "outputs": [],
      "stateMutability": "nonpayable",
      "type": "function"
    },
    {
      "inputs": [
        {
          "internalType": "address",
          "name": "from",
          "type": "address"
        },
        {
          "internalType": "address",
          "name": "to",
          "type": "address"
        },
        {
          "internalType": "uint256",
          "name": "id",
          "type": "uint256"
        },
        {
          "internalType": "uint256",
          "name": "amount",
          "type": "uint256"
        },
        {
          "internalType": "bytes",
          "name": "data",
          "type": "bytes"
        }
      ],
      "name": "safeTransferFrom",
      "outputs": [],
      "stateMutability": "nonpayable",
      "type": "function"
    },
    {
      "inputs": [
        {
          "internalType": "address",
          "name": "operator",
          "type": "address"
        },
        {
          "internalType": "bool",
          "name": "approved",
          "type": "bool"
        }
      ],
      "name": "setApprovalForAll",
      "outputs": [],
      "stateMutability": "nonpayable",
      "type": "function"
    },
    {
      "inputs": [
        {
          "internalType": "bytes4",
          "name": "interfaceId",
          "type": "bytes4"
        }
      ],
      "name": "supportsInterface",
      "outputs": [
        {
          "internalType": "bool",
          "name": "",
          "type": "bool"
        }
      ],
      "stateMutability": "view",
      "type": "function",
      "constant": true
    },
    {
      "inputs": [
        {
          "internalType": "address",
          "name": "newOwner",
          "type": "address"
        }
      ],
      "name": "transferOwnership",
      "outputs": [],
      "stateMutability": "nonpayable",
      "type": "function"
    },
    {
      "inputs": [
        {
          "internalType": "uint256",
          "name": "",
          "type": "uint256"
        }
      ],
      "name": "uri",
      "outputs": [
        {
          "internalType": "string",
          "name": "",
          "type": "string"
        }
      ],
      "stateMutability": "view",
      "type": "function",
      "constant": true
    },
    {
      "inputs": [
        {
          "internalType": "address",
          "name": "to",
          "type": "address"
        },
        {
          "internalType": "uint256",
          "name": "id",
          "type": "uint256"
        },
        {
          "internalType": "uint256",
          "name": "amount",
          "type": "uint256"
        },
        {
          "internalType": "bytes",
          "name": "data",
          "type": "bytes"
        }
      ],
      "name": "mint",
      "outputs": [],
      "stateMutability": "nonpayable",
      "type": "function"
    },
    {
      "inputs": [
        {
          "internalType": "address",
          "name": "to",
          "type": "address"
        },
        {
          "internalType": "uint256",
          "name": "amount",
          "type": "uint256"
        },
        {
          "internalType": "bytes",
          "name": "data",
          "type": "bytes"
        }
      ],
      "name": "mintFungibleToken",
      "outputs": [],
      "stateMutability": "nonpayable",
      "type": "function"
    },
    {
      "inputs": [
        {
          "internalType": "address",
          "name": "to",
          "type": "address"
        },
        {
          "internalType": "bytes",
          "name": "data",
          "type": "bytes"
        }
      ],
      "name": "mintNonFungibleToken",
      "outputs": [],
      "stateMutability": "nonpayable",
      "type": "function"
    },
    {
      "inputs": [
        {
          "internalType": "address",
          "name": "account",
          "type": "address"
        },
        {
          "internalType": "uint256",
          "name": "id",
          "type": "uint256"
        },
        {
          "internalType": "uint256",
          "name": "amount",
          "type": "uint256"
        }
      ],
      "name": "burn",
      "outputs": [],
      "stateMutability": "nonpayable",
      "type": "function"
    },
    {
      "inputs": [
        {
          "internalType": "string",
          "name": "newuri",
          "type": "string"
        }
      ],
      "name": "setURI",
      "outputs": [],
      "stateMutability": "nonpayable",
      "type": "function"
    }
  ],
  "bytecode": "0x608060405260016004553480156200001657600080fd5b506040516200393e3803806200393e83398181016040528101906200003c91906200028e565b806200004e816200007660201b60201c565b506200006f620000636200009260201b60201c565b6200009a60201b60201c565b5062000463565b80600290805190602001906200008e92919062000160565b5050565b600033905090565b6000600360009054906101000a900473ffffffffffffffffffffffffffffffffffffffff16905081600360006101000a81548173ffffffffffffffffffffffffffffffffffffffff021916908373ffffffffffffffffffffffffffffffffffffffff1602179055508173ffffffffffffffffffffffffffffffffffffffff168173ffffffffffffffffffffffffffffffffffffffff167f8be0079c531659141344cd1fd0a4f28419497f9722a3daafe3b4186f6b6457e060405160405180910390a35050565b8280546200016e9062000374565b90600052602060002090601f016020900481019282620001925760008555620001de565b82601f10620001ad57805160ff1916838001178555620001de565b82800160010185558215620001de579182015b82811115620001dd578251825591602001919060010190620001c0565b5b509050620001ed9190620001f1565b5090565b5b808211156200020c576000816000905550600101620001f2565b5090565b600062000227620002218462000308565b620002df565b90508281526020810184848401111562000246576200024562000443565b5b620002538482856200033e565b509392505050565b600082601f8301126200027357620002726200043e565b5b81516200028584826020860162000210565b91505092915050565b600060208284031215620002a757620002a66200044d565b5b600082015167ffffffffffffffff811115620002c857620002c762000448565b5b620002d6848285016200025b565b91505092915050565b6000620002eb620002fe565b9050620002f98282620003aa565b919050565b6000604051905090565b600067ffffffffffffffff8211156200032657620003256200040f565b5b620003318262000452565b9050602081019050919050565b60005b838110156200035e57808201518184015260208101905062000341565b838111156200036e576000848401525b50505050565b600060028204905060018216806200038d57607f821691505b60208210811415620003a457620003a3620003e0565b5b50919050565b620003b58262000452565b810181811067ffffffffffffffff82111715620003d757620003d66200040f565b5b80604052505050565b7f4e487b7100000000000000000000000000000000000000000000000000000000600052602260045260246000fd5b7f4e487b7100000000000000000000000000000000000000000000000000000000600052604160045260246000fd5b600080fd5b600080fd5b600080fd5b600080fd5b6000601f19601f8301169050919050565b6134cb80620004736000396000f3fe608060405234801561001057600080fd5b50600436106100ff5760003560e01c8063731133e911610097578063e985e9c511610066578063e985e9c514610294578063f242432a146102c4578063f2fde38b146102e0578063f5298aca146102fc576100ff565b8063731133e9146102225780638da5cb5b1461023e578063a22cb4651461025c578063bd8881bb14610278576100ff565b80632eb2c2d6116100d35780632eb2c2d6146101b05780634e1273f4146101cc5780635fbc1c6e146101fc578063715018a614610218576100ff565b8062fdd58e1461010457806301ffc9a71461013457806302fe5305146101645780630e89341c14610180575b600080fd5b61011e60048036038101906101199190612176565b610318565b60405161012b9190612ac7565b60405180910390f35b61014e60048036038101906101499190612373565b6103e1565b60405161015b91906128aa565b60405180910390f35b61017e600480360381019061017991906123cd565b6104c3565b005b61019a60048036038101906101959190612416565b6104d7565b6040516101a791906128c5565b60405180910390f35b6101ca60048036038101906101c59190611f74565b61056b565b005b6101e660048036038101906101e191906122fb565b61060c565b6040516101f39190612851565b60405180910390f35b6102166004803603810190610211919061211a565b610725565b005b61022061075a565b005b61023c60048036038101906102379190612278565b61076e565b005b61024661082b565b6040516102539190612774565b60405180910390f35b610276600480360381019061027191906120da565b610855565b005b610292600480360381019061028d91906121b6565b61086b565b005b6102ae60048036038101906102a99190611f34565b6108a0565b6040516102bb91906128aa565b60405180910390f35b6102de60048036038101906102d99190612043565b610934565b005b6102fa60048036038101906102f59190611f07565b6109d5565b005b61031660048036038101906103119190612225565b610a59565b005b60008073ffffffffffffffffffffffffffffffffffffffff168373ffffffffffffffffffffffffffffffffffffffff161415610389576040517f08c379a000000000000000000000000000000000000000000000000000000000815260040161038090612947565b60405180910390fd5b60008083815260200190815260200160002060008473ffffffffffffffffffffffffffffffffffffffff1673ffffffffffffffffffffffffffffffffffffffff16815260200190815260200160002054905092915050565b60007fd9b67a26000000000000000000000000000000000000000000000000000000007bffffffffffffffffffffffffffffffffffffffffffffffffffffffff1916827bffffffffffffffffffffffffffffffffffffffffffffffffffffffff191614806104ac57507f0e89341c000000000000000000000000000000000000000000000000000000007bffffffffffffffffffffffffffffffffffffffffffffffffffffffff1916827bffffffffffffffffffffffffffffffffffffffffffffffffffffffff1916145b806104bc57506104bb82610a71565b5b9050919050565b6104cb610adb565b6104d481610b59565b50565b6060600280546104e690612d67565b80601f016020809104026020016040519081016040528092919081815260200182805461051290612d67565b801561055f5780601f106105345761010080835404028352916020019161055f565b820191906000526020600020905b81548152906001019060200180831161054257829003601f168201915b50505050509050919050565b610573610b73565b73ffffffffffffffffffffffffffffffffffffffff168573ffffffffffffffffffffffffffffffffffffffff1614806105b957506105b8856105b3610b73565b6108a0565b5b6105f8576040517f08c379a00000000000000000000000000000000000000000000000000000000081526004016105ef90612967565b60405180910390fd5b6106058585858585610b7b565b5050505050565b60608151835114610652576040517f08c379a000000000000000000000000000000000000000000000000000000000815260040161064990612a47565b60405180910390fd5b6000835167ffffffffffffffff81111561066f5761066e612ea0565b5b60405190808252806020026020018201604052801561069d5781602001602082028036833780820191505090505b50905060005b845181101561071a576106ea8582815181106106c2576106c1612e71565b5b60200260200101518583815181106106dd576106dc612e71565b5b6020026020010151610318565b8282815181106106fd576106fc612e71565b5b6020026020010181815250508061071390612dca565b90506106a3565b508091505092915050565b61072d610adb565b61073c82600454600184610e9d565b60016004600082825461074f9190612c5b565b925050819055505050565b610762610adb565b61076c600061104e565b565b61077661082b565b73ffffffffffffffffffffffffffffffffffffffff163373ffffffffffffffffffffffffffffffffffffffff1614806107da57503073ffffffffffffffffffffffffffffffffffffffff163373ffffffffffffffffffffffffffffffffffffffff16145b610819576040517f08c379a000000000000000000000000000000000000000000000000000000000815260040161081090612a07565b60405180910390fd5b61082584848484610e9d565b50505050565b6000600360009054906101000a900473ffffffffffffffffffffffffffffffffffffffff16905090565b610867610860610b73565b8383611114565b5050565b610873610adb565b610881836004548484610e9d565b6001600460008282546108949190612c5b565b92505081905550505050565b6000600160008473ffffffffffffffffffffffffffffffffffffffff1673ffffffffffffffffffffffffffffffffffffffff16815260200190815260200160002060008373ffffffffffffffffffffffffffffffffffffffff1673ffffffffffffffffffffffffffffffffffffffff16815260200190815260200160002060009054906101000a900460ff16905092915050565b61093c610b73565b73ffffffffffffffffffffffffffffffffffffffff168573ffffffffffffffffffffffffffffffffffffffff16148061098257506109818561097c610b73565b6108a0565b5b6109c1576040517f08c379a00000000000000000000000000000000000000000000000000000000081526004016109b890612967565b60405180910390fd5b6109ce8585858585611281565b5050505050565b6109dd610adb565b600073ffffffffffffffffffffffffffffffffffffffff168173ffffffffffffffffffffffffffffffffffffffff161415610a4d576040517f08c379a0000000000000000000000000000000000000000000000000000000008152600401610a4490612907565b60405180910390fd5b610a568161104e565b50565b610a61610adb565b610a6c83838361151d565b505050565b60007f01ffc9a7000000000000000000000000000000000000000000000000000000007bffffffffffffffffffffffffffffffffffffffffffffffffffffffff1916827bffffffffffffffffffffffffffffffffffffffffffffffffffffffff1916149050919050565b610ae3610b73565b73ffffffffffffffffffffffffffffffffffffffff16610b0161082b565b73ffffffffffffffffffffffffffffffffffffffff1614610b57576040517f08c379a0000000000000000000000000000000000000000000000000000000008152600401610b4e906129e7565b60405180910390fd5b565b8060029080519060200190610b6f929190611bdf565b5050565b600033905090565b8151835114610bbf576040517f08c379a0000000000000000000000000000000000000000000000000000000008152600401610bb690612a67565b60405180910390fd5b600073ffffffffffffffffffffffffffffffffffffffff168473ffffffffffffffffffffffffffffffffffffffff161415610c2f576040517f08c379a0000000000000000000000000000000000000000000000000000000008152600401610c2690612987565b60405180910390fd5b6000610c39610b73565b9050610c49818787878787611764565b60005b8451811015610dfa576000858281518110610c6a57610c69612e71565b5b602002602001015190506000858381518110610c8957610c88612e71565b5b60200260200101519050600080600084815260200190815260200160002060008b73ffffffffffffffffffffffffffffffffffffffff1673ffffffffffffffffffffffffffffffffffffffff16815260200190815260200160002054905081811015610d2a576040517f08c379a0000000000000000000000000000000000000000000000000000000008152600401610d21906129c7565b60405180910390fd5b81810360008085815260200190815260200160002060008c73ffffffffffffffffffffffffffffffffffffffff1673ffffffffffffffffffffffffffffffffffffffff168152602001908152602001600020819055508160008085815260200190815260200160002060008b73ffffffffffffffffffffffffffffffffffffffff1673ffffffffffffffffffffffffffffffffffffffff1681526020019081526020016000206000828254610ddf9190612c5b565b9250508190555050505080610df390612dca565b9050610c4c565b508473ffffffffffffffffffffffffffffffffffffffff168673ffffffffffffffffffffffffffffffffffffffff168273ffffffffffffffffffffffffffffffffffffffff167f4a39dc06d4c0dbc64b70af90fd698a233a518aa5d07e595d983b8c0526c8f7fb8787604051610e71929190612873565b60405180910390a4610e8781878787878761176c565b610e95818787878787611774565b505050505050565b600073ffffffffffffffffffffffffffffffffffffffff168473ffffffffffffffffffffffffffffffffffffffff161415610f0d576040517f08c379a0000000000000000000000000000000000000000000000000000000008152600401610f0490612a87565b60405180910390fd5b6000610f17610b73565b90506000610f248561195b565b90506000610f318561195b565b9050610f4283600089858589611764565b8460008088815260200190815260200160002060008973ffffffffffffffffffffffffffffffffffffffff1673ffffffffffffffffffffffffffffffffffffffff1681526020019081526020016000206000828254610fa19190612c5b565b925050819055508673ffffffffffffffffffffffffffffffffffffffff16600073ffffffffffffffffffffffffffffffffffffffff168473ffffffffffffffffffffffffffffffffffffffff167fc3d58168c5ae7397731d063d5bbf3d657854427343f4c083240f7aacaa2d0f62898960405161101f929190612ae2565b60405180910390a46110368360008985858961176c565b611045836000898989896119d5565b50505050505050565b6000600360009054906101000a900473ffffffffffffffffffffffffffffffffffffffff16905081600360006101000a81548173ffffffffffffffffffffffffffffffffffffffff021916908373ffffffffffffffffffffffffffffffffffffffff1602179055508173ffffffffffffffffffffffffffffffffffffffff168173ffffffffffffffffffffffffffffffffffffffff167f8be0079c531659141344cd1fd0a4f28419497f9722a3daafe3b4186f6b6457e060405160405180910390a35050565b8173ffffffffffffffffffffffffffffffffffffffff168373ffffffffffffffffffffffffffffffffffffffff161415611183576040517f08c379a000000000000000000000000000000000000000000000000000000000815260040161117a90612a27565b60405180910390fd5b80600160008573ffffffffffffffffffffffffffffffffffffffff1673ffffffffffffffffffffffffffffffffffffffff16815260200190815260200160002060008473ffffffffffffffffffffffffffffffffffffffff1673ffffffffffffffffffffffffffffffffffffffff16815260200190815260200160002060006101000a81548160ff0219169083151502179055508173ffffffffffffffffffffffffffffffffffffffff168373ffffffffffffffffffffffffffffffffffffffff167f17307eab39ab6107e8899845ad3d59bd9653f200f220920489ca2b5937696c318360405161127491906128aa565b60405180910390a3505050565b600073ffffffffffffffffffffffffffffffffffffffff168473ffffffffffffffffffffffffffffffffffffffff1614156112f1576040517f08c379a00000000000000000000000000000000000000000000000000000000081526004016112e890612987565b60405180910390fd5b60006112fb610b73565b905060006113088561195b565b905060006113158561195b565b9050611325838989858589611764565b600080600088815260200190815260200160002060008a73ffffffffffffffffffffffffffffffffffffffff1673ffffffffffffffffffffffffffffffffffffffff168152602001908152602001600020549050858110156113bc576040517f08c379a00000000000000000000000000000000000000000000000000000000081526004016113b3906129c7565b60405180910390fd5b85810360008089815260200190815260200160002060008b73ffffffffffffffffffffffffffffffffffffffff1673ffffffffffffffffffffffffffffffffffffffff168152602001908152602001600020819055508560008089815260200190815260200160002060008a73ffffffffffffffffffffffffffffffffffffffff1673ffffffffffffffffffffffffffffffffffffffff16815260200190815260200160002060008282546114719190612c5b565b925050819055508773ffffffffffffffffffffffffffffffffffffffff168973ffffffffffffffffffffffffffffffffffffffff168573ffffffffffffffffffffffffffffffffffffffff167fc3d58168c5ae7397731d063d5bbf3d657854427343f4c083240f7aacaa2d0f628a8a6040516114ee929190612ae2565b60405180910390a4611504848a8a86868a61176c565b611512848a8a8a8a8a6119d5565b505050505050505050565b600073ffffffffffffffffffffffffffffffffffffffff168373ffffffffffffffffffffffffffffffffffffffff16141561158d576040517f08c379a0000000000000000000000000000000000000000000000000000000008152600401611584906129a7565b60405180910390fd5b6000611597610b73565b905060006115a48461195b565b905060006115b18461195b565b90506115d183876000858560405180602001604052806000815250611764565b600080600087815260200190815260200160002060008873ffffffffffffffffffffffffffffffffffffffff1673ffffffffffffffffffffffffffffffffffffffff16815260200190815260200160002054905084811015611668576040517f08c379a000000000000000000000000000000000000000000000000000000000815260040161165f90612927565b60405180910390fd5b84810360008088815260200190815260200160002060008973ffffffffffffffffffffffffffffffffffffffff1673ffffffffffffffffffffffffffffffffffffffff16815260200190815260200160002081905550600073ffffffffffffffffffffffffffffffffffffffff168773ffffffffffffffffffffffffffffffffffffffff168573ffffffffffffffffffffffffffffffffffffffff167fc3d58168c5ae7397731d063d5bbf3d657854427343f4c083240f7aacaa2d0f628989604051611735929190612ae2565b60405180910390a461175b8488600086866040518060200160405280600081525061176c565b50505050505050565b505050505050565b505050505050565b6117938473ffffffffffffffffffffffffffffffffffffffff16611bbc565b15611953578373ffffffffffffffffffffffffffffffffffffffff1663bc197c8187878686866040518663ffffffff1660e01b81526004016117d995949392919061278f565b602060405180830381600087803b1580156117f357600080fd5b505af192505050801561182457506040513d601f19601f8201168201806040525081019061182191906123a0565b60015b6118ca57611830612ecf565b806308c379a0141561188d57506118456133a3565b80611850575061188f565b806040517f08c379a000000000000000000000000000000000000000000000000000000000815260040161188491906128c5565b60405180910390fd5b505b6040517f08c379a00000000000000000000000000000000000000000000000000000000081526004016118c190612aa7565b60405180910390fd5b63bc197c8160e01b7bffffffffffffffffffffffffffffffffffffffffffffffffffffffff1916817bffffffffffffffffffffffffffffffffffffffffffffffffffffffff191614611951576040517f08c379a0000000000000000000000000000000000000000000000000000000008152600401611948906128e7565b60405180910390fd5b505b505050505050565b60606000600167ffffffffffffffff81111561197a57611979612ea0565b5b6040519080825280602002602001820160405280156119a85781602001602082028036833780820191505090505b50905082816000815181106119c0576119bf612e71565b5b60200260200101818152505080915050919050565b6119f48473ffffffffffffffffffffffffffffffffffffffff16611bbc565b15611bb4578373ffffffffffffffffffffffffffffffffffffffff1663f23a6e6187878686866040518663ffffffff1660e01b8152600401611a3a9594939291906127f7565b602060405180830381600087803b158015611a5457600080fd5b505af1925050508015611a8557506040513d601f19601f82011682018060405250810190611a8291906123a0565b60015b611b2b57611a91612ecf565b806308c379a01415611aee5750611aa66133a3565b80611ab15750611af0565b806040517f08c379a0000000000000000000000000000000000000000000000000000000008152600401611ae591906128c5565b60405180910390fd5b505b6040517f08c379a0000000000000000000000000000000000000000000000000000000008152600401611b2290612aa7565b60405180910390fd5b63f23a6e6160e01b7bffffffffffffffffffffffffffffffffffffffffffffffffffffffff1916817bffffffffffffffffffffffffffffffffffffffffffffffffffffffff191614611bb2576040517f08c379a0000000000000000000000000000000000000000000000000000000008152600401611ba9906128e7565b60405180910390fd5b505b505050505050565b6000808273ffffffffffffffffffffffffffffffffffffffff163b119050919050565b828054611beb90612d67565b90600052602060002090601f016020900481019282611c0d5760008555611c54565b82601f10611c2657805160ff1916838001178555611c54565b82800160010185558215611c54579182015b82811115611c53578251825591602001919060010190611c38565b5b509050611c619190611c65565b5090565b5b80821115611c7e576000816000905550600101611c66565b5090565b6000611c95611c9084612b30565b612b0b565b90508083825260208201905082856020860282011115611cb857611cb7612ef6565b5b60005b85811015611ce85781611cce8882611de6565b845260208401935060208301925050600181019050611cbb565b5050509392505050565b6000611d05611d0084612b5c565b612b0b565b90508083825260208201905082856020860282011115611d2857611d27612ef6565b5b60005b85811015611d585781611d3e8882611ef2565b845260208401935060208301925050600181019050611d2b565b5050509392505050565b6000611d75611d7084612b88565b612b0b565b905082815260208101848484011115611d9157611d90612efb565b5b611d9c848285612d25565b509392505050565b6000611db7611db284612bb9565b612b0b565b905082815260208101848484011115611dd357611dd2612efb565b5b611dde848285612d25565b509392505050565b600081359050611df581613439565b92915050565b600082601f830112611e1057611e0f612ef1565b5b8135611e20848260208601611c82565b91505092915050565b600082601f830112611e3e57611e3d612ef1565b5b8135611e4e848260208601611cf2565b91505092915050565b600081359050611e6681613450565b92915050565b600081359050611e7b81613467565b92915050565b600081519050611e9081613467565b92915050565b600082601f830112611eab57611eaa612ef1565b5b8135611ebb848260208601611d62565b91505092915050565b600082601f830112611ed957611ed8612ef1565b5b8135611ee9848260208601611da4565b91505092915050565b600081359050611f018161347e565b92915050565b600060208284031215611f1d57611f1c612f05565b5b6000611f2b84828501611de6565b91505092915050565b60008060408385031215611f4b57611f4a612f05565b5b6000611f5985828601611de6565b9250506020611f6a85828601611de6565b9150509250929050565b600080600080600060a08688031215611f9057611f8f612f05565b5b6000611f9e88828901611de6565b9550506020611faf88828901611de6565b945050604086013567ffffffffffffffff811115611fd057611fcf612f00565b5b611fdc88828901611e29565b935050606086013567ffffffffffffffff811115611ffd57611ffc612f00565b5b61200988828901611e29565b925050608086013567ffffffffffffffff81111561202a57612029612f00565b5b61203688828901611e96565b9150509295509295909350565b600080600080600060a0868803121561205f5761205e612f05565b5b600061206d88828901611de6565b955050602061207e88828901611de6565b945050604061208f88828901611ef2565b93505060606120a088828901611ef2565b925050608086013567ffffffffffffffff8111156120c1576120c0612f00565b5b6120cd88828901611e96565b9150509295509295909350565b600080604083850312156120f1576120f0612f05565b5b60006120ff85828601611de6565b925050602061211085828601611e57565b9150509250929050565b6000806040838503121561213157612130612f05565b5b600061213f85828601611de6565b925050602083013567ffffffffffffffff8111156121605761215f612f00565b5b61216c85828601611e96565b9150509250929050565b6000806040838503121561218d5761218c612f05565b5b600061219b85828601611de6565b92505060206121ac85828601611ef2565b9150509250929050565b6000806000606084860312156121cf576121ce612f05565b5b60006121dd86828701611de6565b93505060206121ee86828701611ef2565b925050604084013567ffffffffffffffff81111561220f5761220e612f00565b5b61221b86828701611e96565b9150509250925092565b60008060006060848603121561223e5761223d612f05565b5b600061224c86828701611de6565b935050602061225d86828701611ef2565b925050604061226e86828701611ef2565b9150509250925092565b6000806000806080858703121561229257612291612f05565b5b60006122a087828801611de6565b94505060206122b187828801611ef2565b93505060406122c287828801611ef2565b925050606085013567ffffffffffffffff8111156122e3576122e2612f00565b5b6122ef87828801611e96565b91505092959194509250565b6000806040838503121561231257612311612f05565b5b600083013567ffffffffffffffff8111156123305761232f612f00565b5b61233c85828601611dfb565b925050602083013567ffffffffffffffff81111561235d5761235c612f00565b5b61236985828601611e29565b9150509250929050565b60006020828403121561238957612388612f05565b5b600061239784828501611e6c565b91505092915050565b6000602082840312156123b6576123b5612f05565b5b60006123c484828501611e81565b91505092915050565b6000602082840312156123e3576123e2612f05565b5b600082013567ffffffffffffffff81111561240157612400612f00565b5b61240d84828501611ec4565b91505092915050565b60006020828403121561242c5761242b612f05565b5b600061243a84828501611ef2565b91505092915050565b600061244f8383612756565b60208301905092915050565b61246481612cb1565b82525050565b600061247582612bfa565b61247f8185612c28565b935061248a83612bea565b8060005b838110156124bb5781516124a28882612443565b97506124ad83612c1b565b92505060018101905061248e565b5085935050505092915050565b6124d181612cc3565b82525050565b60006124e282612c05565b6124ec8185612c39565b93506124fc818560208601612d34565b61250581612f0a565b840191505092915050565b600061251b82612c10565b6125258185612c4a565b9350612535818560208601612d34565b61253e81612f0a565b840191505092915050565b6000612556602883612c4a565b915061256182612f28565b604082019050919050565b6000612579602683612c4a565b915061258482612f77565b604082019050919050565b600061259c602483612c4a565b91506125a782612fc6565b604082019050919050565b60006125bf602a83612c4a565b91506125ca82613015565b604082019050919050565b60006125e2602e83612c4a565b91506125ed82613064565b604082019050919050565b6000612605602583612c4a565b9150612610826130b3565b604082019050919050565b6000612628602383612c4a565b915061263382613102565b604082019050919050565b600061264b602a83612c4a565b915061265682613151565b604082019050919050565b600061266e602083612c4a565b9150612679826131a0565b602082019050919050565b6000612691603f83612c4a565b915061269c826131c9565b604082019050919050565b60006126b4602983612c4a565b91506126bf82613218565b604082019050919050565b60006126d7602983612c4a565b91506126e282613267565b604082019050919050565b60006126fa602883612c4a565b9150612705826132b6565b604082019050919050565b600061271d602183612c4a565b915061272882613305565b604082019050919050565b6000612740603483612c4a565b915061274b82613354565b604082019050919050565b61275f81612d1b565b82525050565b61276e81612d1b565b82525050565b6000602082019050612789600083018461245b565b92915050565b600060a0820190506127a4600083018861245b565b6127b1602083018761245b565b81810360408301526127c3818661246a565b905081810360608301526127d7818561246a565b905081810360808301526127eb81846124d7565b90509695505050505050565b600060a08201905061280c600083018861245b565b612819602083018761245b565b6128266040830186612765565b6128336060830185612765565b818103608083015261284581846124d7565b90509695505050505050565b6000602082019050818103600083015261286b818461246a565b905092915050565b6000604082019050818103600083015261288d818561246a565b905081810360208301526128a1818461246a565b90509392505050565b60006020820190506128bf60008301846124c8565b92915050565b600060208201905081810360008301526128df8184612510565b905092915050565b6000602082019050818103600083015261290081612549565b9050919050565b600060208201905081810360008301526129208161256c565b9050919050565b600060208201905081810360008301526129408161258f565b9050919050565b60006020820190508181036000830152612960816125b2565b9050919050565b60006020820190508181036000830152612980816125d5565b9050919050565b600060208201905081810360008301526129a0816125f8565b9050919050565b600060208201905081810360008301526129c08161261b565b9050919050565b600060208201905081810360008301526129e08161263e565b9050919050565b60006020820190508181036000830152612a0081612661565b9050919050565b60006020820190508181036000830152612a2081612684565b9050919050565b60006020820190508181036000830152612a40816126a7565b9050919050565b60006020820190508181036000830152612a60816126ca565b9050919050565b60006020820190508181036000830152612a80816126ed565b9050919050565b60006020820190508181036000830152612aa081612710565b9050919050565b60006020820190508181036000830152612ac081612733565b9050919050565b6000602082019050612adc6000830184612765565b92915050565b6000604082019050612af76000830185612765565b612b046020830184612765565b9392505050565b6000612b15612b26565b9050612b218282612d99565b919050565b6000604051905090565b600067ffffffffffffffff821115612b4b57612b4a612ea0565b5b602082029050602081019050919050565b600067ffffffffffffffff821115612b7757612b76612ea0565b5b602082029050602081019050919050565b600067ffffffffffffffff821115612ba357612ba2612ea0565b5b612bac82612f0a565b9050602081019050919050565b600067ffffffffffffffff821115612bd457612bd3612ea0565b5b612bdd82612f0a565b9050602081019050919050565b6000819050602082019050919050565b600081519050919050565b600081519050919050565b600081519050919050565b6000602082019050919050565b600082825260208201905092915050565b600082825260208201905092915050565b600082825260208201905092915050565b6000612c6682612d1b565b9150612c7183612d1b565b9250827fffffffffffffffffffffffffffffffffffffffffffffffffffffffffffffffff03821115612ca657612ca5612e13565b5b828201905092915050565b6000612cbc82612cfb565b9050919050565b60008115159050919050565b60007fffffffff0000000000000000000000000000000000000000000000000000000082169050919050565b600073ffffffffffffffffffffffffffffffffffffffff82169050919050565b6000819050919050565b82818337600083830152505050565b60005b83811015612d52578082015181840152602081019050612d37565b83811115612d61576000848401525b50505050565b60006002820490506001821680612d7f57607f821691505b60208210811415612d9357612d92612e42565b5b50919050565b612da282612f0a565b810181811067ffffffffffffffff82111715612dc157612dc0612ea0565b5b80604052505050565b6000612dd582612d1b565b91507fffffffffffffffffffffffffffffffffffffffffffffffffffffffffffffffff821415612e0857612e07612e13565b5b600182019050919050565b7f4e487b7100000000000000000000000000000000000000000000000000000000600052601160045260246000fd5b7f4e487b7100000000000000000000000000000000000000000000000000000000600052602260045260246000fd5b7f4e487b7100000000000000000000000000000000000000000000000000000000600052603260045260246000fd5b7f4e487b7100000000000000000000000000000000000000000000000000000000600052604160045260246000fd5b600060033d1115612eee5760046000803e612eeb600051612f1b565b90505b90565b600080fd5b600080fd5b600080fd5b600080fd5b600080fd5b6000601f19601f8301169050919050565b60008160e01c9050919050565b7f455243313135353a204552433131353552656365697665722072656a6563746560008201527f6420746f6b656e73000000000000000000000000000000000000000000000000602082015250565b7f4f776e61626c653a206e6577206f776e657220697320746865207a65726f206160008201527f6464726573730000000000000000000000000000000000000000000000000000602082015250565b7f455243313135353a206275726e20616d6f756e7420657863656564732062616c60008201527f616e636500000000000000000000000000000000000000000000000000000000602082015250565b7f455243313135353a2061646472657373207a65726f206973206e6f742061207660008201527f616c6964206f776e657200000000000000000000000000000000000000000000602082015250565b7f455243313135353a2063616c6c6572206973206e6f7420746f6b656e206f776e60008201527f6572206f7220617070726f766564000000000000000000000000000000000000602082015250565b7f455243313135353a207472616e7366657220746f20746865207a65726f20616460008201527f6472657373000000000000000000000000000000000000000000000000000000602082015250565b7f455243313135353a206275726e2066726f6d20746865207a65726f206164647260008201527f6573730000000000000000000000000000000000000000000000000000000000602082015250565b7f455243313135353a20696e73756666696369656e742062616c616e636520666f60008201527f72207472616e7366657200000000000000000000000000000000000000000000602082015250565b7f4f776e61626c653a2063616c6c6572206973206e6f7420746865206f776e6572600082015250565b7f45524331313535546f6b656e3a204f6e6c79206f776e6572206f72207468652060008201527f636f6e747261637420697473656c662063616e206d696e7420746f6b656e7300602082015250565b7f455243313135353a2073657474696e6720617070726f76616c2073746174757360008201527f20666f722073656c660000000000000000000000000000000000000000000000602082015250565b7f455243313135353a206163636f756e747320616e6420696473206c656e67746860008201527f206d69736d617463680000000000000000000000000000000000000000000000602082015250565b7f455243313135353a2069647320616e6420616d6f756e7473206c656e6774682060008201527f6d69736d61746368000000000000000000000000000000000000000000000000602082015250565b7f455243313135353a206d696e7420746f20746865207a65726f2061646472657360008201527f7300000000000000000000000000000000000000000000000000000000000000602082015250565b7f455243313135353a207472616e7366657220746f206e6f6e2d4552433131353560008201527f526563656976657220696d706c656d656e746572000000000000000000000000602082015250565b600060443d10156133b357613436565b6133bb612b26565b60043d036004823e80513d602482011167ffffffffffffffff821117156133e3575050613436565b808201805167ffffffffffffffff8111156134015750505050613436565b80602083010160043d03850181111561341e575050505050613436565b61342d82602001850186612d99565b82955050505050505b90565b61344281612cb1565b811461344d57600080fd5b50565b61345981612cc3565b811461346457600080fd5b50565b61347081612ccf565b811461347b57600080fd5b50565b61348781612d1b565b811461349257600080fd5b5056fea26469706673582212201a843f0be257b9f69c7684779b585019a827ca347749a80be60ba31500ab988d64736f6c63430008060033",
  "immutableReferences": {},
  "source": "// SPDX-License-Identifier: MIT\r\npragma solidity ^0.8.0;\r\n\r\nimport \"@openzeppelin/contracts/token/ERC1155/ERC1155.sol\";\r\nimport \"@openzeppelin/contracts/access/Ownable.sol\";\r\n\r\ncontract ERC1155Token is ERC1155, Ownable {\r\n    uint256 private _currentTokenID = 1;\r\n\r\n    constructor(string memory uri) ERC1155(uri) {}\r\n\r\n    function mint(\r\n        address to,\r\n        uint256 id,\r\n        uint256 amount,\r\n        bytes memory data\r\n    ) external {\r\n        require(msg.sender == owner() || msg.sender == address(this), \"ERC1155Token: Only owner or the contract itself can mint tokens\");\r\n        _mint(to, id, amount, data);\r\n    }\r\n\r\n    function mintFungibleToken(\r\n        address to,\r\n        uint256 amount,\r\n        bytes memory data\r\n    ) external onlyOwner {\r\n        _mint(to, _currentTokenID, amount, data);\r\n        _currentTokenID += 1;\r\n    }\r\n\r\n    function mintNonFungibleToken(\r\n        address to,\r\n        bytes memory data\r\n    ) external onlyOwner {\r\n        _mint(to, _currentTokenID, 1, data);\r\n        _currentTokenID += 1;\r\n    }\r\n\r\n    function burn(\r\n        address account,\r\n        uint256 id,\r\n        uint256 amount\r\n    ) external onlyOwner {\r\n        _burn(account, id, amount);\r\n    }\r\n\r\n    function setURI(string memory newuri) external onlyOwner {\r\n        _setURI(newuri);\r\n    }\r\n}\r\n",
  "sourcePath": "C:\\Users\\Sascha\\Documents\\GitHub\\EcoTRONomy\\my-app\\contracts\\ERC1155Token.sol",
  "compiler": {
    "name": "solc",
    "version": "0.8.6+commit.11564f7e.Emscripten.clang"
  },
  "schemaVersion": "3.4.13",
  "updatedAt": "2023-04-11T21:18:06.685Z",
  "networkType": "ethereum",
  "devdoc": {
    "kind": "dev",
    "methods": {
      "balanceOf(address,uint256)": {
        "details": "See {IERC1155-balanceOf}. Requirements: - `account` cannot be the zero address."
      },
      "balanceOfBatch(address[],uint256[])": {
        "details": "See {IERC1155-balanceOfBatch}. Requirements: - `accounts` and `ids` must have the same length."
      },
      "isApprovedForAll(address,address)": {
        "details": "See {IERC1155-isApprovedForAll}."
      },
      "owner()": {
        "details": "Returns the address of the current owner."
      },
      "renounceOwnership()": {
        "details": "Leaves the contract without owner. It will not be possible to call `onlyOwner` functions anymore. Can only be called by the current owner. NOTE: Renouncing ownership will leave the contract without an owner, thereby removing any functionality that is only available to the owner."
      },
      "safeBatchTransferFrom(address,address,uint256[],uint256[],bytes)": {
        "details": "See {IERC1155-safeBatchTransferFrom}."
      },
      "safeTransferFrom(address,address,uint256,uint256,bytes)": {
        "details": "See {IERC1155-safeTransferFrom}."
      },
      "setApprovalForAll(address,bool)": {
        "details": "See {IERC1155-setApprovalForAll}."
      },
      "supportsInterface(bytes4)": {
        "details": "See {IERC165-supportsInterface}."
      },
      "transferOwnership(address)": {
        "details": "Transfers ownership of the contract to a new account (`newOwner`). Can only be called by the current owner."
      },
      "uri(uint256)": {
        "details": "See {IERC1155MetadataURI-uri}. This implementation returns the same URI for *all* token types. It relies on the token type ID substitution mechanism https://eips.ethereum.org/EIPS/eip-1155#metadata[defined in the EIP]. Clients calling this function must replace the `\\{id\\}` substring with the actual token type ID."
      }
    },
    "version": 1
  },
  "userdoc": {
    "kind": "user",
    "methods": {},
    "version": 1
  }
}