{
  "contractName": "Marketplace",
  "abi": [
    {
      "inputs": [
        {
          "internalType": "address",
          "name": "_erc1155Token",
          "type": "address"
        },
        {
          "internalType": "address",
          "name": "_trxToken",
          "type": "address"
        },
        {
          "internalType": "address",
          "name": "_usdtToken",
          "type": "address"
        }
      ],
      "stateMutability": "nonpayable",
      "type": "constructor"
    },
    {
      "anonymous": false,
      "inputs": [
        {
          "indexed": true,
          "internalType": "uint256",
          "name": "listingId",
          "type": "uint256"
        },
        {
          "indexed": true,
          "internalType": "address",
          "name": "seller",
          "type": "address"
        },
        {
          "indexed": true,
          "internalType": "uint256",
          "name": "tokenId",
          "type": "uint256"
        },
        {
          "indexed": false,
          "internalType": "uint256",
          "name": "amount",
          "type": "uint256"
        }
      ],
      "name": "ListingCancelled",
      "type": "event"
    },
    {
      "anonymous": false,
      "inputs": [
        {
          "indexed": true,
          "internalType": "uint256",
          "name": "listingId",
          "type": "uint256"
        },
        {
          "indexed": true,
          "internalType": "address",
          "name": "buyer",
          "type": "address"
        },
        {
          "indexed": true,
          "internalType": "uint256",
          "name": "tokenId",
          "type": "uint256"
        },
        {
          "indexed": false,
          "internalType": "uint256",
          "name": "amount",
          "type": "uint256"
        }
      ],
      "name": "ListingPurchased",
      "type": "event"
    },
    {
      "anonymous": false,
      "inputs": [
        {
          "indexed": true,
          "internalType": "uint256",
          "name": "listingId",
          "type": "uint256"
        },
        {
          "indexed": true,
          "internalType": "address",
          "name": "seller",
          "type": "address"
        },
        {
          "indexed": true,
          "internalType": "uint256",
          "name": "tokenId",
          "type": "uint256"
        },
        {
          "indexed": false,
          "internalType": "uint256",
          "name": "amount",
          "type": "uint256"
        },
        {
          "indexed": false,
          "internalType": "uint256",
          "name": "pricePerToken",
          "type": "uint256"
        },
        {
          "indexed": false,
          "internalType": "bool",
          "name": "isTRX",
          "type": "bool"
        }
      ],
      "name": "NewListing",
      "type": "event"
    },
    {
      "inputs": [],
      "name": "erc1155Token",
      "outputs": [
        {
          "internalType": "contract IERC1155",
          "name": "",
          "type": "address"
        }
      ],
      "stateMutability": "view",
      "type": "function",
      "constant": true
    },
    {
      "inputs": [
        {
          "internalType": "uint256",
          "name": "",
          "type": "uint256"
        }
      ],
      "name": "listings",
      "outputs": [
        {
          "internalType": "address",
          "name": "seller",
          "type": "address"
        },
        {
          "internalType": "uint256",
          "name": "tokenId",
          "type": "uint256"
        },
        {
          "internalType": "uint256",
          "name": "amount",
          "type": "uint256"
        },
        {
          "internalType": "uint256",
          "name": "pricePerToken",
          "type": "uint256"
        },
        {
          "internalType": "bool",
          "name": "isTRX",
          "type": "bool"
        }
      ],
      "stateMutability": "view",
      "type": "function",
      "constant": true
    },
    {
      "inputs": [
        {
          "internalType": "bytes4",
          "name": "interfaceId",
          "type": "bytes4"
        }
      ],
      "name": "supportsInterface",
      "outputs": [
        {
          "internalType": "bool",
          "name": "",
          "type": "bool"
        }
      ],
      "stateMutability": "view",
      "type": "function",
      "constant": true
    },
    {
      "inputs": [],
      "name": "trxToken",
      "outputs": [
        {
          "internalType": "contract IERC20",
          "name": "",
          "type": "address"
        }
      ],
      "stateMutability": "view",
      "type": "function",
      "constant": true
    },
    {
      "inputs": [],
      "name": "usdtToken",
      "outputs": [
        {
          "internalType": "contract IERC20",
          "name": "",
          "type": "address"
        }
      ],
      "stateMutability": "view",
      "type": "function",
      "constant": true
    },
    {
      "inputs": [
        {
          "internalType": "uint256",
          "name": "tokenId",
          "type": "uint256"
        },
        {
          "internalType": "uint256",
          "name": "amount",
          "type": "uint256"
        },
        {
          "internalType": "uint256",
          "name": "pricePerToken",
          "type": "uint256"
        },
        {
          "internalType": "bool",
          "name": "isTRX",
          "type": "bool"
        }
      ],
      "name": "createListing",
      "outputs": [],
      "stateMutability": "nonpayable",
      "type": "function"
    },
    {
      "inputs": [
        {
          "internalType": "uint256",
          "name": "listingId",
          "type": "uint256"
        },
        {
          "internalType": "uint256",
          "name": "amount",
          "type": "uint256"
        }
      ],
      "name": "buyListing",
      "outputs": [],
      "stateMutability": "nonpayable",
      "type": "function"
    },
    {
      "inputs": [
        {
          "internalType": "uint256",
          "name": "listingId",
          "type": "uint256"
        }
      ],
      "name": "cancelListing",
      "outputs": [],
      "stateMutability": "nonpayable",
      "type": "function"
    },
    {
      "inputs": [],
      "name": "getNextListingId",
      "outputs": [
        {
          "internalType": "uint256",
          "name": "",
          "type": "uint256"
        }
      ],
      "stateMutability": "view",
      "type": "function",
      "constant": true
    },
    {
      "inputs": [
        {
          "internalType": "uint256",
          "name": "listingId",
          "type": "uint256"
        }
      ],
      "name": "getListing",
      "outputs": [
        {
          "components": [
            {
              "internalType": "address",
              "name": "seller",
              "type": "address"
            },
            {
              "internalType": "uint256",
              "name": "tokenId",
              "type": "uint256"
            },
            {
              "internalType": "uint256",
              "name": "amount",
              "type": "uint256"
            },
            {
              "internalType": "uint256",
              "name": "pricePerToken",
              "type": "uint256"
            },
            {
              "internalType": "bool",
              "name": "isTRX",
              "type": "bool"
            }
          ],
          "internalType": "struct Marketplace.Listing",
          "name": "",
          "type": "tuple"
        }
      ],
      "stateMutability": "view",
      "type": "function",
      "constant": true
    },
    {
      "inputs": [
        {
          "internalType": "address",
          "name": "",
          "type": "address"
        },
        {
          "internalType": "address",
          "name": "",
          "type": "address"
        },
        {
          "internalType": "uint256",
          "name": "",
          "type": "uint256"
        },
        {
          "internalType": "uint256",
          "name": "",
          "type": "uint256"
        },
        {
          "internalType": "bytes",
          "name": "",
          "type": "bytes"
        }
      ],
      "name": "onERC1155Received",
      "outputs": [
        {
          "internalType": "bytes4",
          "name": "",
          "type": "bytes4"
        }
      ],
      "stateMutability": "pure",
      "type": "function",
      "constant": true
    },
    {
      "inputs": [
        {
          "internalType": "address",
          "name": "",
          "type": "address"
        },
        {
          "internalType": "address",
          "name": "",
          "type": "address"
        },
        {
          "internalType": "uint256[]",
          "name": "",
          "type": "uint256[]"
        },
        {
          "internalType": "uint256[]",
          "name": "",
          "type": "uint256[]"
        },
        {
          "internalType": "bytes",
          "name": "",
          "type": "bytes"
        }
      ],
      "name": "onERC1155BatchReceived",
      "outputs": [
        {
          "internalType": "bytes4",
          "name": "",
          "type": "bytes4"
        }
      ],
      "stateMutability": "pure",
      "type": "function",
      "constant": true
    }
  ],
  "bytecode": "0x608060405260016003553480156200001657600080fd5b5060405162001c9538038062001c9583398181016040528101906200003c91906200011e565b826000806101000a81548173ffffffffffffffffffffffffffffffffffffffff021916908373ffffffffffffffffffffffffffffffffffffffff16021790555081600160006101000a81548173ffffffffffffffffffffffffffffffffffffffff021916908373ffffffffffffffffffffffffffffffffffffffff16021790555080600260006101000a81548173ffffffffffffffffffffffffffffffffffffffff021916908373ffffffffffffffffffffffffffffffffffffffff160217905550505050620001cd565b6000815190506200011881620001b3565b92915050565b6000806000606084860312156200013a5762000139620001ae565b5b60006200014a8682870162000107565b93505060206200015d8682870162000107565b9250506040620001708682870162000107565b9150509250925092565b600062000187826200018e565b9050919050565b600073ffffffffffffffffffffffffffffffffffffffff82169050919050565b600080fd5b620001be816200017a565b8114620001ca57600080fd5b50565b611ab880620001dd6000396000f3fe608060405234801561001057600080fd5b50600436106100b45760003560e01c80639444beea116100715780639444beea1461018d578063a98ad46c146101ab578063bc197c81146101c9578063de74e57b146101f9578063f23a6e611461022d578063fbac04af1461025d576100b4565b806301ffc9a7146100b9578063107a274a146100e957806321f4226814610119578063305a67a81461013757806339bbf609146101535780636d0ba1d314610171575b600080fd5b6100d360048036038101906100ce9190611112565b610279565b6040516100e091906114d9565b60405180910390f35b61010360048036038101906100fe919061113f565b6102f3565b6040516101109190611605565b60405180910390f35b6101216103af565b60405161012e919061150f565b60405180910390f35b610151600480360381019061014c919061113f565b6103d3565b005b61015b6105da565b6040516101689190611620565b60405180910390f35b61018b6004803603810190610186919061116c565b6105e4565b005b610195610a5f565b6040516101a2919061152a565b60405180910390f35b6101b3610a85565b6040516101c0919061152a565b60405180910390f35b6101e360048036038101906101de9190610f6f565b610aab565b6040516101f091906114f4565b60405180910390f35b610213600480360381019061020e919061113f565b610ac3565b604051610224959493929190611486565b60405180910390f35b6102476004803603810190610242919061104b565b610b26565b60405161025491906114f4565b60405180910390f35b610277600480360381019061027291906111ac565b610b3c565b005b60007f4e2312e0000000000000000000000000000000000000000000000000000000007bffffffffffffffffffffffffffffffffffffffffffffffffffffffff1916827bffffffffffffffffffffffffffffffffffffffffffffffffffffffff191614806102ec57506102eb82610da9565b5b9050919050565b6102fb610e13565b600460008381526020019081526020016000206040518060a00160405290816000820160009054906101000a900473ffffffffffffffffffffffffffffffffffffffff1673ffffffffffffffffffffffffffffffffffffffff1673ffffffffffffffffffffffffffffffffffffffff1681526020016001820154815260200160028201548152602001600382015481526020016004820160009054906101000a900460ff1615151515815250509050919050565b60008054906101000a900473ffffffffffffffffffffffffffffffffffffffff1681565b60006004600083815260200190815260200160002090503373ffffffffffffffffffffffffffffffffffffffff168160000160009054906101000a900473ffffffffffffffffffffffffffffffffffffffff1673ffffffffffffffffffffffffffffffffffffffff161461047c576040517f08c379a0000000000000000000000000000000000000000000000000000000008152600401610473906115e5565b60405180910390fd5b60008054906101000a900473ffffffffffffffffffffffffffffffffffffffff1673ffffffffffffffffffffffffffffffffffffffff1663f242432a3033846001015485600201546040518563ffffffff1660e01b81526004016104e3949392919061142e565b600060405180830381600087803b1580156104fd57600080fd5b505af1158015610511573d6000803e3d6000fd5b5050505060046000838152602001908152602001600020600080820160006101000a81549073ffffffffffffffffffffffffffffffffffffffff02191690556001820160009055600282016000905560038201600090556004820160006101000a81549060ff0219169055505080600101543373ffffffffffffffffffffffffffffffffffffffff16837f587f221a465f70749f0226b8dd00e01725d2fc0a7cb46475c600f1a81f1849c384600201546040516105ce9190611620565b60405180910390a45050565b6000600354905090565b60006004600084815260200190815260200160002090508181600201541015610642576040517f08c379a000000000000000000000000000000000000000000000000000000000815260040161063990611585565b60405180910390fd5b60008211610685576040517f08c379a000000000000000000000000000000000000000000000000000000000815260040161067c906115a5565b60405180910390fd5b60008282600301546106979190611694565b90508160040160009054906101000a900460ff16156107c957600160009054906101000a900473ffffffffffffffffffffffffffffffffffffffff1673ffffffffffffffffffffffffffffffffffffffff166323b872dd338460000160009054906101000a900473ffffffffffffffffffffffffffffffffffffffff16846040518463ffffffff1660e01b8152600401610733939291906113f7565b602060405180830381600087803b15801561074d57600080fd5b505af1158015610761573d6000803e3d6000fd5b505050506040513d601f19601f8201168201806040525081019061078591906110e5565b6107c4576040517f08c379a00000000000000000000000000000000000000000000000000000000081526004016107bb906115c5565b60405180910390fd5b6108de565b600260009054906101000a900473ffffffffffffffffffffffffffffffffffffffff1673ffffffffffffffffffffffffffffffffffffffff166323b872dd338460000160009054906101000a900473ffffffffffffffffffffffffffffffffffffffff16846040518463ffffffff1660e01b815260040161084c939291906113f7565b602060405180830381600087803b15801561086657600080fd5b505af115801561087a573d6000803e3d6000fd5b505050506040513d601f19601f8201168201806040525081019061089e91906110e5565b6108dd576040517f08c379a00000000000000000000000000000000000000000000000000000000081526004016108d490611565565b60405180910390fd5b5b60008054906101000a900473ffffffffffffffffffffffffffffffffffffffff1673ffffffffffffffffffffffffffffffffffffffff1663f242432a30338560010154876040518563ffffffff1660e01b8152600401610941949392919061142e565b600060405180830381600087803b15801561095b57600080fd5b505af115801561096f573d6000803e3d6000fd5b505050508282600201600082825461098791906116ee565b92505081905550600082600201541415610a055760046000858152602001908152602001600020600080820160006101000a81549073ffffffffffffffffffffffffffffffffffffffff02191690556001820160009055600282016000905560038201600090556004820160006101000a81549060ff021916905550505b81600101543373ffffffffffffffffffffffffffffffffffffffff16857f0db6cd6881fc0453b2d01f52eb5a16417707659f245732abc10f847426e3525d86604051610a519190611620565b60405180910390a450505050565b600160009054906101000a900473ffffffffffffffffffffffffffffffffffffffff1681565b600260009054906101000a900473ffffffffffffffffffffffffffffffffffffffff1681565b600063bc197c8160e01b905098975050505050505050565b60046020528060005260406000206000915090508060000160009054906101000a900473ffffffffffffffffffffffffffffffffffffffff16908060010154908060020154908060030154908060040160009054906101000a900460ff16905085565b600063f23a6e6160e01b90509695505050505050565b60008311610b7f576040517f08c379a0000000000000000000000000000000000000000000000000000000008152600401610b76906115a5565b60405180910390fd5b60008211610bc2576040517f08c379a0000000000000000000000000000000000000000000000000000000008152600401610bb990611545565b60405180910390fd5b60008054906101000a900473ffffffffffffffffffffffffffffffffffffffff1673ffffffffffffffffffffffffffffffffffffffff1663f242432a333087876040518563ffffffff1660e01b8152600401610c21949392919061142e565b600060405180830381600087803b158015610c3b57600080fd5b505af1158015610c4f573d6000803e3d6000fd5b5050505060006040518060a001604052803373ffffffffffffffffffffffffffffffffffffffff16815260200186815260200185815260200184815260200183151581525090508060046000600354815260200190815260200160002060008201518160000160006101000a81548173ffffffffffffffffffffffffffffffffffffffff021916908373ffffffffffffffffffffffffffffffffffffffff16021790555060208201518160010155604082015181600201556060820151816003015560808201518160040160006101000a81548160ff021916908315150217905550905050843373ffffffffffffffffffffffffffffffffffffffff166003547fa2094e255da138e9da370ce95c48a5cffd5ae694de4c4372949b7068ad89c0bc878787604051610d829392919061163b565b60405180910390a460036000815480929190610d9d906117de565b91905055505050505050565b60007f01ffc9a7000000000000000000000000000000000000000000000000000000007bffffffffffffffffffffffffffffffffffffffffffffffffffffffff1916827bffffffffffffffffffffffffffffffffffffffffffffffffffffffff1916149050919050565b6040518060a00160405280600073ffffffffffffffffffffffffffffffffffffffff1681526020016000815260200160008152602001600081526020016000151581525090565b600081359050610e6981611a26565b92915050565b60008083601f840112610e8557610e8461185b565b5b8235905067ffffffffffffffff811115610ea257610ea1611856565b5b602083019150836020820283011115610ebe57610ebd611860565b5b9250929050565b600081359050610ed481611a3d565b92915050565b600081519050610ee981611a3d565b92915050565b600081359050610efe81611a54565b92915050565b60008083601f840112610f1a57610f1961185b565b5b8235905067ffffffffffffffff811115610f3757610f36611856565b5b602083019150836001820283011115610f5357610f52611860565b5b9250929050565b600081359050610f6981611a6b565b92915050565b60008060008060008060008060a0898b031215610f8f57610f8e61186a565b5b6000610f9d8b828c01610e5a565b9850506020610fae8b828c01610e5a565b975050604089013567ffffffffffffffff811115610fcf57610fce611865565b5b610fdb8b828c01610e6f565b9650965050606089013567ffffffffffffffff811115610ffe57610ffd611865565b5b61100a8b828c01610e6f565b9450945050608089013567ffffffffffffffff81111561102d5761102c611865565b5b6110398b828c01610f04565b92509250509295985092959890939650565b60008060008060008060a087890312156110685761106761186a565b5b600061107689828a01610e5a565b965050602061108789828a01610e5a565b955050604061109889828a01610f5a565b94505060606110a989828a01610f5a565b935050608087013567ffffffffffffffff8111156110ca576110c9611865565b5b6110d689828a01610f04565b92509250509295509295509295565b6000602082840312156110fb576110fa61186a565b5b600061110984828501610eda565b91505092915050565b6000602082840312156111285761112761186a565b5b600061113684828501610eef565b91505092915050565b6000602082840312156111555761115461186a565b5b600061116384828501610f5a565b91505092915050565b600080604083850312156111835761118261186a565b5b600061119185828601610f5a565b92505060206111a285828601610f5a565b9150509250929050565b600080600080608085870312156111c6576111c561186a565b5b60006111d487828801610f5a565b94505060206111e587828801610f5a565b93505060406111f687828801610f5a565b925050606061120787828801610ec5565b91505092959194509250565b61121c81611722565b82525050565b61122b81611722565b82525050565b61123a81611734565b82525050565b61124981611734565b82525050565b61125881611740565b82525050565b61126781611796565b82525050565b611276816117ba565b82525050565b6000611289603383611683565b91506112948261186f565b604082019050919050565b60006112ac602183611683565b91506112b7826118be565b604082019050919050565b60006112cf602883611683565b91506112da8261190d565b604082019050919050565b60006112f2602a83611683565b91506112fd8261195c565b604082019050919050565b6000611315600083611672565b9150611320826119ab565b600082019050919050565b6000611338602083611683565b9150611343826119ae565b602082019050919050565b600061135b603383611683565b9150611366826119d7565b604082019050919050565b60a0820160008201516113876000850182611213565b50602082015161139a60208501826113d9565b5060408201516113ad60408501826113d9565b5060608201516113c060608501826113d9565b5060808201516113d36080850182611231565b50505050565b6113e28161178c565b82525050565b6113f18161178c565b82525050565b600060608201905061140c6000830186611222565b6114196020830185611222565b61142660408301846113e8565b949350505050565b600060a0820190506114436000830187611222565b6114506020830186611222565b61145d60408301856113e8565b61146a60608301846113e8565b818103608083015261147b81611308565b905095945050505050565b600060a08201905061149b6000830188611222565b6114a860208301876113e8565b6114b560408301866113e8565b6114c260608301856113e8565b6114cf6080830184611240565b9695505050505050565b60006020820190506114ee6000830184611240565b92915050565b6000602082019050611509600083018461124f565b92915050565b6000602082019050611524600083018461125e565b92915050565b600060208201905061153f600083018461126d565b92915050565b6000602082019050818103600083015261155e8161127c565b9050919050565b6000602082019050818103600083015261157e8161129f565b9050919050565b6000602082019050818103600083015261159e816112c2565b9050919050565b600060208201905081810360008301526115be816112e5565b9050919050565b600060208201905081810360008301526115de8161132b565b9050919050565b600060208201905081810360008301526115fe8161134e565b9050919050565b600060a08201905061161a6000830184611371565b92915050565b600060208201905061163560008301846113e8565b92915050565b600060608201905061165060008301866113e8565b61165d60208301856113e8565b61166a6040830184611240565b949350505050565b600082825260208201905092915050565b600082825260208201905092915050565b600061169f8261178c565b91506116aa8361178c565b9250817fffffffffffffffffffffffffffffffffffffffffffffffffffffffffffffffff04831182151516156116e3576116e2611827565b5b828202905092915050565b60006116f98261178c565b91506117048361178c565b92508282101561171757611716611827565b5b828203905092915050565b600061172d8261176c565b9050919050565b60008115159050919050565b60007fffffffff0000000000000000000000000000000000000000000000000000000082169050919050565b600073ffffffffffffffffffffffffffffffffffffffff82169050919050565b6000819050919050565b60006117a1826117a8565b9050919050565b60006117b38261176c565b9050919050565b60006117c5826117cc565b9050919050565b60006117d78261176c565b9050919050565b60006117e98261178c565b91507fffffffffffffffffffffffffffffffffffffffffffffffffffffffffffffffff82141561181c5761181b611827565b5b600182019050919050565b7f4e487b7100000000000000000000000000000000000000000000000000000000600052601160045260246000fd5b600080fd5b600080fd5b600080fd5b600080fd5b600080fd5b7f4d61726b6574706c6163653a2050726963652070657220746f6b656e206d757360008201527f742062652067726561746572207468616e203000000000000000000000000000602082015250565b7f4d61726b6574706c6163653a2055534454207472616e73666572206661696c6560008201527f6400000000000000000000000000000000000000000000000000000000000000602082015250565b7f4d61726b6574706c6163653a204e6f7420656e6f75676820746f6b656e73206160008201527f7661696c61626c65000000000000000000000000000000000000000000000000602082015250565b7f4d61726b6574706c6163653a20416d6f756e74206d757374206265206772656160008201527f746572207468616e203000000000000000000000000000000000000000000000602082015250565b50565b7f4d61726b6574706c6163653a20545258207472616e73666572206661696c6564600082015250565b7f4d61726b6574706c6163653a204f6e6c79207468652073656c6c65722063616e60008201527f2063616e63656c20746865206c697374696e6700000000000000000000000000602082015250565b611a2f81611722565b8114611a3a57600080fd5b50565b611a4681611734565b8114611a5157600080fd5b50565b611a5d81611740565b8114611a6857600080fd5b50565b611a748161178c565b8114611a7f57600080fd5b5056fea264697066735822122000eb222961018976271384e5ffded3bb3d17d07948bc3b7e75608ac1ea326de664736f6c63430008060033",
  "immutableReferences": {},
  "source": "// SPDX-License-Identifier: MIT\r\npragma solidity ^0.8.0;\r\n\r\nimport \"@openzeppelin/contracts/token/ERC1155/IERC1155.sol\";\r\nimport \"@openzeppelin/contracts/token/ERC20/IERC20.sol\";\r\nimport \"@openzeppelin/contracts/access/Ownable.sol\";\r\nimport \"@openzeppelin/contracts/token/ERC1155/utils/ERC1155Receiver.sol\";\r\n\r\ncontract Marketplace is ERC1155Receiver {\r\n    IERC1155 public erc1155Token;\r\n    IERC20 public trxToken;\r\n    IERC20 public usdtToken;\r\n\r\n    uint256 private _nextListingId = 1;\r\n\r\n    struct Listing {\r\n        address seller;\r\n        uint256 tokenId;\r\n        uint256 amount;\r\n        uint256 pricePerToken;\r\n        bool isTRX;\r\n    }\r\n\r\n    mapping(uint256 => Listing) public listings;\r\n\r\n    event NewListing(\r\n        uint256 indexed listingId,\r\n        address indexed seller,\r\n        uint256 indexed tokenId,\r\n        uint256 amount,\r\n        uint256 pricePerToken,\r\n        bool isTRX\r\n    );\r\n    event ListingPurchased(\r\n        uint256 indexed listingId,\r\n        address indexed buyer,\r\n        uint256 indexed tokenId,\r\n        uint256 amount\r\n    );\r\n\r\n    constructor(address _erc1155Token, address _trxToken, address _usdtToken) {\r\n        erc1155Token = IERC1155(_erc1155Token);\r\n        trxToken = IERC20(_trxToken);\r\n        usdtToken = IERC20(_usdtToken);\r\n    }\r\n\r\n    function createListing(\r\n        uint256 tokenId,\r\n        uint256 amount,\r\n        uint256 pricePerToken,\r\n        bool isTRX\r\n    ) external {\r\n        require(amount > 0, \"Marketplace: Amount must be greater than 0\");\r\n        require(\r\n            pricePerToken > 0,\r\n            \"Marketplace: Price per token must be greater than 0\"\r\n        );\r\n\r\n        erc1155Token.safeTransferFrom(\r\n            msg.sender,\r\n            address(this),\r\n            tokenId,\r\n            amount,\r\n            \"\"\r\n        );\r\n\r\n        Listing memory newListing = Listing({\r\n            seller: msg.sender,\r\n            tokenId: tokenId,\r\n            amount: amount,\r\n            pricePerToken: pricePerToken,\r\n            isTRX: isTRX\r\n        });\r\n\r\n        listings[_nextListingId] = newListing;\r\n\r\n        emit NewListing(\r\n            _nextListingId,\r\n            msg.sender,\r\n            tokenId,\r\n            amount,\r\n            pricePerToken,\r\n            isTRX\r\n        );\r\n\r\n        _nextListingId++;\r\n    }\r\n\r\n    function buyListing(uint256 listingId, uint256 amount) external {\r\n        Listing storage listing = listings[listingId];\r\n\r\n        require(\r\n            listing.amount >= amount,\r\n            \"Marketplace: Not enough tokens available\"\r\n        );\r\n        require(amount > 0, \"Marketplace: Amount must be greater than 0\");\r\n\r\n        uint256 totalPrice = listing.pricePerToken * amount;\r\n\r\n        if (listing.isTRX) {\r\n            require(\r\n                trxToken.transferFrom(msg.sender, listing.seller, totalPrice),\r\n                \"Marketplace: TRX transfer failed\"\r\n            );\r\n        } else {\r\n            require(\r\n                usdtToken.transferFrom(msg.sender, listing.seller, totalPrice),\r\n                \"Marketplace: USDT transfer failed\"\r\n            );\r\n        }\r\n\r\n        erc1155Token.safeTransferFrom(\r\n            address(this),\r\n            msg.sender,\r\n            listing.tokenId,\r\n            amount,\r\n            \"\"\r\n        );\r\n\r\n        listing.amount -= amount;\r\n\r\n        if (listing.amount == 0) {\r\n            delete listings[listingId];\r\n        }\r\n\r\n        emit ListingPurchased(listingId, msg.sender, listing.tokenId, amount);\r\n    }\r\n\r\n    function cancelListing(uint256 listingId) external {\r\n        Listing storage listing = listings[listingId];\r\n\r\n        require(\r\n            listing.seller == msg.sender,\r\n            \"Marketplace: Only the seller can cancel the listing\"\r\n        );\r\n\r\n        erc1155Token.safeTransferFrom(\r\n            address(this),\r\n            msg.sender,\r\n            listing.tokenId,\r\n            listing.amount,\r\n            \"\"\r\n        );\r\n\r\n        delete listings[listingId];\r\n\r\n        emit ListingCancelled(\r\n            listingId,\r\n            msg.sender,\r\n            listing.tokenId,\r\n            listing.amount\r\n        );\r\n    }\r\n\r\n    function getNextListingId() external view returns (uint256) {\r\n        return _nextListingId;\r\n    }\r\n\r\n    function getListing(\r\n        uint256 listingId\r\n    ) external view returns (Listing memory) {\r\n        return listings[listingId];\r\n    }\r\n\r\n    event ListingCancelled(\r\n        uint256 indexed listingId,\r\n        address indexed seller,\r\n        uint256 indexed tokenId,\r\n        uint256 amount\r\n    );\r\n\r\n    function onERC1155Received(\r\n        address /* operator */,\r\n        address /* from */,\r\n        uint256 /* id */,\r\n        uint256 /* value */,\r\n        bytes calldata /* data */\r\n    ) external pure override returns (bytes4) {\r\n        return this.onERC1155Received.selector;\r\n    }\r\n\r\n    function onERC1155BatchReceived(\r\n        address /* operator */,\r\n        address /* from */,\r\n        uint256[] calldata /* ids */,\r\n        uint256[] calldata /* values */,\r\n        bytes calldata /* data */\r\n    ) external pure override returns (bytes4) {\r\n        return this.onERC1155BatchReceived.selector;\r\n    }\r\n}\r\n",
  "sourcePath": "C:\\Users\\Sascha\\Documents\\GitHub\\EcoTRONomy\\my-app\\contracts\\Marketplace.sol",
  "compiler": {
    "name": "solc",
    "version": "0.8.6+commit.11564f7e.Emscripten.clang"
  },
  "schemaVersion": "3.4.13",
  "updatedAt": "2023-04-11T21:18:06.707Z",
  "networkType": "ethereum",
  "devdoc": {
    "kind": "dev",
    "methods": {
      "supportsInterface(bytes4)": {
        "details": "See {IERC165-supportsInterface}."
      }
    },
    "version": 1
  },
  "userdoc": {
    "kind": "user",
    "methods": {},
    "version": 1
  }
}