{
  "contractName": "Offset",
  "abi": [
    {
      "inputs": [
        {
          "internalType": "address",
          "name": "bridgeAddress",
          "type": "address"
        },
        {
          "internalType": "address",
          "name": "erc1155TokenAddress",
          "type": "address"
        },
        {
          "internalType": "string",
          "name": "uri",
          "type": "string"
        }
      ],
      "stateMutability": "nonpayable",
      "type": "constructor"
    },
    {
      "anonymous": false,
      "inputs": [
        {
          "indexed": true,
          "internalType": "address",
          "name": "account",
          "type": "address"
        },
        {
          "indexed": true,
          "internalType": "address",
          "name": "operator",
          "type": "address"
        },
        {
          "indexed": false,
          "internalType": "bool",
          "name": "approved",
          "type": "bool"
        }
      ],
      "name": "ApprovalForAll",
      "type": "event"
    },
    {
      "anonymous": false,
      "inputs": [
        {
          "indexed": true,
          "internalType": "address",
          "name": "previousOwner",
          "type": "address"
        },
        {
          "indexed": true,
          "internalType": "address",
          "name": "newOwner",
          "type": "address"
        }
      ],
      "name": "OwnershipTransferred",
      "type": "event"
    },
    {
      "anonymous": false,
      "inputs": [
        {
          "indexed": true,
          "internalType": "address",
          "name": "operator",
          "type": "address"
        },
        {
          "indexed": true,
          "internalType": "address",
          "name": "from",
          "type": "address"
        },
        {
          "indexed": true,
          "internalType": "address",
          "name": "to",
          "type": "address"
        },
        {
          "indexed": false,
          "internalType": "uint256[]",
          "name": "ids",
          "type": "uint256[]"
        },
        {
          "indexed": false,
          "internalType": "uint256[]",
          "name": "values",
          "type": "uint256[]"
        }
      ],
      "name": "TransferBatch",
      "type": "event"
    },
    {
      "anonymous": false,
      "inputs": [
        {
          "indexed": true,
          "internalType": "address",
          "name": "operator",
          "type": "address"
        },
        {
          "indexed": true,
          "internalType": "address",
          "name": "from",
          "type": "address"
        },
        {
          "indexed": true,
          "internalType": "address",
          "name": "to",
          "type": "address"
        },
        {
          "indexed": false,
          "internalType": "uint256",
          "name": "id",
          "type": "uint256"
        },
        {
          "indexed": false,
          "internalType": "uint256",
          "name": "value",
          "type": "uint256"
        }
      ],
      "name": "TransferSingle",
      "type": "event"
    },
    {
      "anonymous": false,
      "inputs": [
        {
          "indexed": false,
          "internalType": "string",
          "name": "value",
          "type": "string"
        },
        {
          "indexed": true,
          "internalType": "uint256",
          "name": "id",
          "type": "uint256"
        }
      ],
      "name": "URI",
      "type": "event"
    },
    {
      "inputs": [
        {
          "internalType": "address",
          "name": "account",
          "type": "address"
        },
        {
          "internalType": "uint256",
          "name": "id",
          "type": "uint256"
        }
      ],
      "name": "balanceOf",
      "outputs": [
        {
          "internalType": "uint256",
          "name": "",
          "type": "uint256"
        }
      ],
      "stateMutability": "view",
      "type": "function",
      "constant": true
    },
    {
      "inputs": [
        {
          "internalType": "address[]",
          "name": "accounts",
          "type": "address[]"
        },
        {
          "internalType": "uint256[]",
          "name": "ids",
          "type": "uint256[]"
        }
      ],
      "name": "balanceOfBatch",
      "outputs": [
        {
          "internalType": "uint256[]",
          "name": "",
          "type": "uint256[]"
        }
      ],
      "stateMutability": "view",
      "type": "function",
      "constant": true
    },
    {
      "inputs": [
        {
          "internalType": "address",
          "name": "account",
          "type": "address"
        },
        {
          "internalType": "address",
          "name": "operator",
          "type": "address"
        }
      ],
      "name": "isApprovedForAll",
      "outputs": [
        {
          "internalType": "bool",
          "name": "",
          "type": "bool"
        }
      ],
      "stateMutability": "view",
      "type": "function",
      "constant": true
    },
    {
      "inputs": [],
      "name": "owner",
      "outputs": [
        {
          "internalType": "address",
          "name": "",
          "type": "address"
        }
      ],
      "stateMutability": "view",
      "type": "function",
      "constant": true
    },
    {
      "inputs": [],
      "name": "renounceOwnership",
      "outputs": [],
      "stateMutability": "nonpayable",
      "type": "function"
    },
    {
      "inputs": [
        {
          "internalType": "address",
          "name": "from",
          "type": "address"
        },
        {
          "internalType": "address",
          "name": "to",
          "type": "address"
        },
        {
          "internalType": "uint256[]",
          "name": "ids",
          "type": "uint256[]"
        },
        {
          "internalType": "uint256[]",
          "name": "amounts",
          "type": "uint256[]"
        },
        {
          "internalType": "bytes",
          "name": "data",
          "type": "bytes"
        }
      ],
      "name": "safeBatchTransferFrom",
      "outputs": [],
      "stateMutability": "nonpayable",
      "type": "function"
    },
    {
      "inputs": [
        {
          "internalType": "address",
          "name": "from",
          "type": "address"
        },
        {
          "internalType": "address",
          "name": "to",
          "type": "address"
        },
        {
          "internalType": "uint256",
          "name": "id",
          "type": "uint256"
        },
        {
          "internalType": "uint256",
          "name": "amount",
          "type": "uint256"
        },
        {
          "internalType": "bytes",
          "name": "data",
          "type": "bytes"
        }
      ],
      "name": "safeTransferFrom",
      "outputs": [],
      "stateMutability": "nonpayable",
      "type": "function"
    },
    {
      "inputs": [
        {
          "internalType": "address",
          "name": "operator",
          "type": "address"
        },
        {
          "internalType": "bool",
          "name": "approved",
          "type": "bool"
        }
      ],
      "name": "setApprovalForAll",
      "outputs": [],
      "stateMutability": "nonpayable",
      "type": "function"
    },
    {
      "inputs": [
        {
          "internalType": "bytes4",
          "name": "interfaceId",
          "type": "bytes4"
        }
      ],
      "name": "supportsInterface",
      "outputs": [
        {
          "internalType": "bool",
          "name": "",
          "type": "bool"
        }
      ],
      "stateMutability": "view",
      "type": "function",
      "constant": true
    },
    {
      "inputs": [
        {
          "internalType": "address",
          "name": "newOwner",
          "type": "address"
        }
      ],
      "name": "transferOwnership",
      "outputs": [],
      "stateMutability": "nonpayable",
      "type": "function"
    },
    {
      "inputs": [
        {
          "internalType": "uint256",
          "name": "",
          "type": "uint256"
        }
      ],
      "name": "uri",
      "outputs": [
        {
          "internalType": "string",
          "name": "",
          "type": "string"
        }
      ],
      "stateMutability": "view",
      "type": "function",
      "constant": true
    },
    {
      "inputs": [
        {
          "internalType": "address",
          "name": "user",
          "type": "address"
        },
        {
          "internalType": "uint256",
          "name": "tokenId",
          "type": "uint256"
        },
        {
          "internalType": "uint256",
          "name": "amount",
          "type": "uint256"
        }
      ],
      "name": "offsetCarbonCredits",
      "outputs": [],
      "stateMutability": "nonpayable",
      "type": "function"
    }
  ],
  "bytecode": "0x60806040523480156200001157600080fd5b506040516200341338038062003413833981810160405281019062000037919062000324565b806200004981620000f560201b60201c565b506200006a6200005e6200011160201b60201c565b6200011960201b60201c565b82600560006101000a81548173ffffffffffffffffffffffffffffffffffffffff021916908373ffffffffffffffffffffffffffffffffffffffff16021790555081600660006101000a81548173ffffffffffffffffffffffffffffffffffffffff021916908373ffffffffffffffffffffffffffffffffffffffff16021790555050505062000571565b80600290805190602001906200010d929190620001df565b5050565b600033905090565b6000600360009054906101000a900473ffffffffffffffffffffffffffffffffffffffff16905081600360006101000a81548173ffffffffffffffffffffffffffffffffffffffff021916908373ffffffffffffffffffffffffffffffffffffffff1602179055508173ffffffffffffffffffffffffffffffffffffffff168173ffffffffffffffffffffffffffffffffffffffff167f8be0079c531659141344cd1fd0a4f28419497f9722a3daafe3b4186f6b6457e060405160405180910390a35050565b828054620001ed9062000468565b90600052602060002090601f0160209004810192826200021157600085556200025d565b82601f106200022c57805160ff19168380011785556200025d565b828001600101855582156200025d579182015b828111156200025c5782518255916020019190600101906200023f565b5b5090506200026c919062000270565b5090565b5b808211156200028b57600081600090555060010162000271565b5090565b6000620002a6620002a084620003c8565b6200039f565b905082815260208101848484011115620002c557620002c462000537565b5b620002d284828562000432565b509392505050565b600081519050620002eb8162000557565b92915050565b600082601f83011262000309576200030862000532565b5b81516200031b8482602086016200028f565b91505092915050565b60008060006060848603121562000340576200033f62000541565b5b60006200035086828701620002da565b93505060206200036386828701620002da565b925050604084015167ffffffffffffffff8111156200038757620003866200053c565b5b6200039586828701620002f1565b9150509250925092565b6000620003ab620003be565b9050620003b982826200049e565b919050565b6000604051905090565b600067ffffffffffffffff821115620003e657620003e562000503565b5b620003f18262000546565b9050602081019050919050565b60006200040b8262000412565b9050919050565b600073ffffffffffffffffffffffffffffffffffffffff82169050919050565b60005b838110156200045257808201518184015260208101905062000435565b8381111562000462576000848401525b50505050565b600060028204905060018216806200048157607f821691505b60208210811415620004985762000497620004d4565b5b50919050565b620004a98262000546565b810181811067ffffffffffffffff82111715620004cb57620004ca62000503565b5b80604052505050565b7f4e487b7100000000000000000000000000000000000000000000000000000000600052602260045260246000fd5b7f4e487b7100000000000000000000000000000000000000000000000000000000600052604160045260246000fd5b600080fd5b600080fd5b600080fd5b600080fd5b6000601f19601f8301169050919050565b6200056281620003fe565b81146200056e57600080fd5b50565b612e9280620005816000396000f3fe608060405234801561001057600080fd5b50600436106100b35760003560e01c8063715018a611610071578063715018a6146101b05780638da5cb5b146101ba578063a22cb465146101d8578063e985e9c5146101f4578063f242432a14610224578063f2fde38b14610240576100b3565b8062fdd58e146100b857806301ffc9a7146100e85780630e89341c146101185780632eb2c2d61461014857806335943e6f146101645780634e1273f414610180575b600080fd5b6100d260048036038101906100cd9190611d66565b61025c565b6040516100df9190612583565b60405180910390f35b61010260048036038101906100fd9190611e71565b610325565b60405161010f91906123a6565b60405180910390f35b610132600480360381019061012d9190611ecb565b610407565b60405161013f91906123c1565b60405180910390f35b610162600480360381019061015d9190611bc0565b61049b565b005b61017e60048036038101906101799190611da6565b61053c565b005b61019a60048036038101906101959190611df9565b6106f6565b6040516101a7919061234d565b60405180910390f35b6101b861080f565b005b6101c2610823565b6040516101cf9190612210565b60405180910390f35b6101f260048036038101906101ed9190611d26565b61084d565b005b61020e60048036038101906102099190611b80565b610863565b60405161021b91906123a6565b60405180910390f35b61023e60048036038101906102399190611c8f565b6108f7565b005b61025a60048036038101906102559190611b53565b610998565b005b60008073ffffffffffffffffffffffffffffffffffffffff168373ffffffffffffffffffffffffffffffffffffffff1614156102cd576040517f08c379a00000000000000000000000000000000000000000000000000000000081526004016102c490612423565b60405180910390fd5b60008083815260200190815260200160002060008473ffffffffffffffffffffffffffffffffffffffff1673ffffffffffffffffffffffffffffffffffffffff16815260200190815260200160002054905092915050565b60007fd9b67a26000000000000000000000000000000000000000000000000000000007bffffffffffffffffffffffffffffffffffffffffffffffffffffffff1916827bffffffffffffffffffffffffffffffffffffffffffffffffffffffff191614806103f057507f0e89341c000000000000000000000000000000000000000000000000000000007bffffffffffffffffffffffffffffffffffffffffffffffffffffffff1916827bffffffffffffffffffffffffffffffffffffffffffffffffffffffff1916145b8061040057506103ff82610a1c565b5b9050919050565b606060028054610416906127f2565b80601f0160208091040260200160405190810160405280929190818152602001828054610442906127f2565b801561048f5780601f106104645761010080835404028352916020019161048f565b820191906000526020600020905b81548152906001019060200180831161047257829003601f168201915b50505050509050919050565b6104a3610a86565b73ffffffffffffffffffffffffffffffffffffffff168573ffffffffffffffffffffffffffffffffffffffff1614806104e957506104e8856104e3610a86565b610863565b5b610528576040517f08c379a000000000000000000000000000000000000000000000000000000000815260040161051f90612443565b60405180910390fd5b6105358585858585610a8e565b5050505050565b80600660009054906101000a900473ffffffffffffffffffffffffffffffffffffffff1673ffffffffffffffffffffffffffffffffffffffff1662fdd58e85856040518363ffffffff1660e01b81526004016105999291906122ed565b60206040518083038186803b1580156105b157600080fd5b505afa1580156105c5573d6000803e3d6000fd5b505050506040513d601f19601f820116820180604052508101906105e99190611ef8565b101561062a576040517f08c379a0000000000000000000000000000000000000000000000000000000008152600401610621906124e3565b60405180910390fd5b600660009054906101000a900473ffffffffffffffffffffffffffffffffffffffff1673ffffffffffffffffffffffffffffffffffffffff1663f5298aca8484846040518463ffffffff1660e01b815260040161068993929190612316565b600060405180830381600087803b1580156106a357600080fd5b505af11580156106b7573d6000803e3d6000fd5b505050506106d983600454600160405180602001604052806000815250610db0565b600460008154809291906106ec90612855565b9190505550505050565b6060815183511461073c576040517f08c379a000000000000000000000000000000000000000000000000000000000815260040161073390612503565b60405180910390fd5b6000835167ffffffffffffffff8111156107595761075861292b565b5b6040519080825280602002602001820160405280156107875781602001602082028036833780820191505090505b50905060005b8451811015610804576107d48582815181106107ac576107ab6128fc565b5b60200260200101518583815181106107c7576107c66128fc565b5b602002602001015161025c565b8282815181106107e7576107e66128fc565b5b602002602001018181525050806107fd90612855565b905061078d565b508091505092915050565b610817610f61565b6108216000610fdf565b565b6000600360009054906101000a900473ffffffffffffffffffffffffffffffffffffffff16905090565b61085f610858610a86565b83836110a5565b5050565b6000600160008473ffffffffffffffffffffffffffffffffffffffff1673ffffffffffffffffffffffffffffffffffffffff16815260200190815260200160002060008373ffffffffffffffffffffffffffffffffffffffff1673ffffffffffffffffffffffffffffffffffffffff16815260200190815260200160002060009054906101000a900460ff16905092915050565b6108ff610a86565b73ffffffffffffffffffffffffffffffffffffffff168573ffffffffffffffffffffffffffffffffffffffff16148061094557506109448561093f610a86565b610863565b5b610984576040517f08c379a000000000000000000000000000000000000000000000000000000000815260040161097b90612443565b60405180910390fd5b6109918585858585611212565b5050505050565b6109a0610f61565b600073ffffffffffffffffffffffffffffffffffffffff168173ffffffffffffffffffffffffffffffffffffffff161415610a10576040517f08c379a0000000000000000000000000000000000000000000000000000000008152600401610a0790612403565b60405180910390fd5b610a1981610fdf565b50565b60007f01ffc9a7000000000000000000000000000000000000000000000000000000007bffffffffffffffffffffffffffffffffffffffffffffffffffffffff1916827bffffffffffffffffffffffffffffffffffffffffffffffffffffffff1916149050919050565b600033905090565b8151835114610ad2576040517f08c379a0000000000000000000000000000000000000000000000000000000008152600401610ac990612523565b60405180910390fd5b600073ffffffffffffffffffffffffffffffffffffffff168473ffffffffffffffffffffffffffffffffffffffff161415610b42576040517f08c379a0000000000000000000000000000000000000000000000000000000008152600401610b3990612463565b60405180910390fd5b6000610b4c610a86565b9050610b5c8187878787876114ae565b60005b8451811015610d0d576000858281518110610b7d57610b7c6128fc565b5b602002602001015190506000858381518110610b9c57610b9b6128fc565b5b60200260200101519050600080600084815260200190815260200160002060008b73ffffffffffffffffffffffffffffffffffffffff1673ffffffffffffffffffffffffffffffffffffffff16815260200190815260200160002054905081811015610c3d576040517f08c379a0000000000000000000000000000000000000000000000000000000008152600401610c3490612483565b60405180910390fd5b81810360008085815260200190815260200160002060008c73ffffffffffffffffffffffffffffffffffffffff1673ffffffffffffffffffffffffffffffffffffffff168152602001908152602001600020819055508160008085815260200190815260200160002060008b73ffffffffffffffffffffffffffffffffffffffff1673ffffffffffffffffffffffffffffffffffffffff1681526020019081526020016000206000828254610cf291906126e6565b9250508190555050505080610d0690612855565b9050610b5f565b508473ffffffffffffffffffffffffffffffffffffffff168673ffffffffffffffffffffffffffffffffffffffff168273ffffffffffffffffffffffffffffffffffffffff167f4a39dc06d4c0dbc64b70af90fd698a233a518aa5d07e595d983b8c0526c8f7fb8787604051610d8492919061236f565b60405180910390a4610d9a8187878787876114b6565b610da88187878787876114be565b505050505050565b600073ffffffffffffffffffffffffffffffffffffffff168473ffffffffffffffffffffffffffffffffffffffff161415610e20576040517f08c379a0000000000000000000000000000000000000000000000000000000008152600401610e1790612543565b60405180910390fd5b6000610e2a610a86565b90506000610e37856116a5565b90506000610e44856116a5565b9050610e55836000898585896114ae565b8460008088815260200190815260200160002060008973ffffffffffffffffffffffffffffffffffffffff1673ffffffffffffffffffffffffffffffffffffffff1681526020019081526020016000206000828254610eb491906126e6565b925050819055508673ffffffffffffffffffffffffffffffffffffffff16600073ffffffffffffffffffffffffffffffffffffffff168473ffffffffffffffffffffffffffffffffffffffff167fc3d58168c5ae7397731d063d5bbf3d657854427343f4c083240f7aacaa2d0f628989604051610f3292919061259e565b60405180910390a4610f49836000898585896114b6565b610f588360008989898961171f565b50505050505050565b610f69610a86565b73ffffffffffffffffffffffffffffffffffffffff16610f87610823565b73ffffffffffffffffffffffffffffffffffffffff1614610fdd576040517f08c379a0000000000000000000000000000000000000000000000000000000008152600401610fd4906124a3565b60405180910390fd5b565b6000600360009054906101000a900473ffffffffffffffffffffffffffffffffffffffff16905081600360006101000a81548173ffffffffffffffffffffffffffffffffffffffff021916908373ffffffffffffffffffffffffffffffffffffffff1602179055508173ffffffffffffffffffffffffffffffffffffffff168173ffffffffffffffffffffffffffffffffffffffff167f8be0079c531659141344cd1fd0a4f28419497f9722a3daafe3b4186f6b6457e060405160405180910390a35050565b8173ffffffffffffffffffffffffffffffffffffffff168373ffffffffffffffffffffffffffffffffffffffff161415611114576040517f08c379a000000000000000000000000000000000000000000000000000000000815260040161110b906124c3565b60405180910390fd5b80600160008573ffffffffffffffffffffffffffffffffffffffff1673ffffffffffffffffffffffffffffffffffffffff16815260200190815260200160002060008473ffffffffffffffffffffffffffffffffffffffff1673ffffffffffffffffffffffffffffffffffffffff16815260200190815260200160002060006101000a81548160ff0219169083151502179055508173ffffffffffffffffffffffffffffffffffffffff168373ffffffffffffffffffffffffffffffffffffffff167f17307eab39ab6107e8899845ad3d59bd9653f200f220920489ca2b5937696c318360405161120591906123a6565b60405180910390a3505050565b600073ffffffffffffffffffffffffffffffffffffffff168473ffffffffffffffffffffffffffffffffffffffff161415611282576040517f08c379a000000000000000000000000000000000000000000000000000000000815260040161127990612463565b60405180910390fd5b600061128c610a86565b90506000611299856116a5565b905060006112a6856116a5565b90506112b68389898585896114ae565b600080600088815260200190815260200160002060008a73ffffffffffffffffffffffffffffffffffffffff1673ffffffffffffffffffffffffffffffffffffffff1681526020019081526020016000205490508581101561134d576040517f08c379a000000000000000000000000000000000000000000000000000000000815260040161134490612483565b60405180910390fd5b85810360008089815260200190815260200160002060008b73ffffffffffffffffffffffffffffffffffffffff1673ffffffffffffffffffffffffffffffffffffffff168152602001908152602001600020819055508560008089815260200190815260200160002060008a73ffffffffffffffffffffffffffffffffffffffff1673ffffffffffffffffffffffffffffffffffffffff168152602001908152602001600020600082825461140291906126e6565b925050819055508773ffffffffffffffffffffffffffffffffffffffff168973ffffffffffffffffffffffffffffffffffffffff168573ffffffffffffffffffffffffffffffffffffffff167fc3d58168c5ae7397731d063d5bbf3d657854427343f4c083240f7aacaa2d0f628a8a60405161147f92919061259e565b60405180910390a4611495848a8a86868a6114b6565b6114a3848a8a8a8a8a61171f565b505050505050505050565b505050505050565b505050505050565b6114dd8473ffffffffffffffffffffffffffffffffffffffff16611906565b1561169d578373ffffffffffffffffffffffffffffffffffffffff1663bc197c8187878686866040518663ffffffff1660e01b815260040161152395949392919061222b565b602060405180830381600087803b15801561153d57600080fd5b505af192505050801561156e57506040513d601f19601f8201168201806040525081019061156b9190611e9e565b60015b6116145761157a61295a565b806308c379a014156115d7575061158f612d6a565b8061159a57506115d9565b806040517f08c379a00000000000000000000000000000000000000000000000000000000081526004016115ce91906123c1565b60405180910390fd5b505b6040517f08c379a000000000000000000000000000000000000000000000000000000000815260040161160b90612563565b60405180910390fd5b63bc197c8160e01b7bffffffffffffffffffffffffffffffffffffffffffffffffffffffff1916817bffffffffffffffffffffffffffffffffffffffffffffffffffffffff19161461169b576040517f08c379a0000000000000000000000000000000000000000000000000000000008152600401611692906123e3565b60405180910390fd5b505b505050505050565b60606000600167ffffffffffffffff8111156116c4576116c361292b565b5b6040519080825280602002602001820160405280156116f25781602001602082028036833780820191505090505b509050828160008151811061170a576117096128fc565b5b60200260200101818152505080915050919050565b61173e8473ffffffffffffffffffffffffffffffffffffffff16611906565b156118fe578373ffffffffffffffffffffffffffffffffffffffff1663f23a6e6187878686866040518663ffffffff1660e01b8152600401611784959493929190612293565b602060405180830381600087803b15801561179e57600080fd5b505af19250505080156117cf57506040513d601f19601f820116820180604052508101906117cc9190611e9e565b60015b611875576117db61295a565b806308c379a0141561183857506117f0612d6a565b806117fb575061183a565b806040517f08c379a000000000000000000000000000000000000000000000000000000000815260040161182f91906123c1565b60405180910390fd5b505b6040517f08c379a000000000000000000000000000000000000000000000000000000000815260040161186c90612563565b60405180910390fd5b63f23a6e6160e01b7bffffffffffffffffffffffffffffffffffffffffffffffffffffffff1916817bffffffffffffffffffffffffffffffffffffffffffffffffffffffff1916146118fc576040517f08c379a00000000000000000000000000000000000000000000000000000000081526004016118f3906123e3565b60405180910390fd5b505b505050505050565b6000808273ffffffffffffffffffffffffffffffffffffffff163b119050919050565b600061193c611937846125ec565b6125c7565b9050808382526020820190508285602086028201111561195f5761195e612981565b5b60005b8581101561198f57816119758882611a4b565b845260208401935060208301925050600181019050611962565b5050509392505050565b60006119ac6119a784612618565b6125c7565b905080838252602082019050828560208602820111156119cf576119ce612981565b5b60005b858110156119ff57816119e58882611b29565b8452602084019350602083019250506001810190506119d2565b5050509392505050565b6000611a1c611a1784612644565b6125c7565b905082815260208101848484011115611a3857611a37612986565b5b611a438482856127b0565b509392505050565b600081359050611a5a81612e00565b92915050565b600082601f830112611a7557611a7461297c565b5b8135611a85848260208601611929565b91505092915050565b600082601f830112611aa357611aa261297c565b5b8135611ab3848260208601611999565b91505092915050565b600081359050611acb81612e17565b92915050565b600081359050611ae081612e2e565b92915050565b600081519050611af581612e2e565b92915050565b600082601f830112611b1057611b0f61297c565b5b8135611b20848260208601611a09565b91505092915050565b600081359050611b3881612e45565b92915050565b600081519050611b4d81612e45565b92915050565b600060208284031215611b6957611b68612990565b5b6000611b7784828501611a4b565b91505092915050565b60008060408385031215611b9757611b96612990565b5b6000611ba585828601611a4b565b9250506020611bb685828601611a4b565b9150509250929050565b600080600080600060a08688031215611bdc57611bdb612990565b5b6000611bea88828901611a4b565b9550506020611bfb88828901611a4b565b945050604086013567ffffffffffffffff811115611c1c57611c1b61298b565b5b611c2888828901611a8e565b935050606086013567ffffffffffffffff811115611c4957611c4861298b565b5b611c5588828901611a8e565b925050608086013567ffffffffffffffff811115611c7657611c7561298b565b5b611c8288828901611afb565b9150509295509295909350565b600080600080600060a08688031215611cab57611caa612990565b5b6000611cb988828901611a4b565b9550506020611cca88828901611a4b565b9450506040611cdb88828901611b29565b9350506060611cec88828901611b29565b925050608086013567ffffffffffffffff811115611d0d57611d0c61298b565b5b611d1988828901611afb565b9150509295509295909350565b60008060408385031215611d3d57611d3c612990565b5b6000611d4b85828601611a4b565b9250506020611d5c85828601611abc565b9150509250929050565b60008060408385031215611d7d57611d7c612990565b5b6000611d8b85828601611a4b565b9250506020611d9c85828601611b29565b9150509250929050565b600080600060608486031215611dbf57611dbe612990565b5b6000611dcd86828701611a4b565b9350506020611dde86828701611b29565b9250506040611def86828701611b29565b9150509250925092565b60008060408385031215611e1057611e0f612990565b5b600083013567ffffffffffffffff811115611e2e57611e2d61298b565b5b611e3a85828601611a60565b925050602083013567ffffffffffffffff811115611e5b57611e5a61298b565b5b611e6785828601611a8e565b9150509250929050565b600060208284031215611e8757611e86612990565b5b6000611e9584828501611ad1565b91505092915050565b600060208284031215611eb457611eb3612990565b5b6000611ec284828501611ae6565b91505092915050565b600060208284031215611ee157611ee0612990565b5b6000611eef84828501611b29565b91505092915050565b600060208284031215611f0e57611f0d612990565b5b6000611f1c84828501611b3e565b91505092915050565b6000611f3183836121f2565b60208301905092915050565b611f468161273c565b82525050565b6000611f5782612685565b611f6181856126b3565b9350611f6c83612675565b8060005b83811015611f9d578151611f848882611f25565b9750611f8f836126a6565b925050600181019050611f70565b5085935050505092915050565b611fb38161274e565b82525050565b6000611fc482612690565b611fce81856126c4565b9350611fde8185602086016127bf565b611fe781612995565b840191505092915050565b6000611ffd8261269b565b61200781856126d5565b93506120178185602086016127bf565b61202081612995565b840191505092915050565b60006120386028836126d5565b9150612043826129b3565b604082019050919050565b600061205b6026836126d5565b915061206682612a02565b604082019050919050565b600061207e602a836126d5565b915061208982612a51565b604082019050919050565b60006120a1602e836126d5565b91506120ac82612aa0565b604082019050919050565b60006120c46025836126d5565b91506120cf82612aef565b604082019050919050565b60006120e7602a836126d5565b91506120f282612b3e565b604082019050919050565b600061210a6020836126d5565b915061211582612b8d565b602082019050919050565b600061212d6029836126d5565b915061213882612bb6565b604082019050919050565b60006121506019836126d5565b915061215b82612c05565b602082019050919050565b60006121736029836126d5565b915061217e82612c2e565b604082019050919050565b60006121966028836126d5565b91506121a182612c7d565b604082019050919050565b60006121b96021836126d5565b91506121c482612ccc565b604082019050919050565b60006121dc6034836126d5565b91506121e782612d1b565b604082019050919050565b6121fb816127a6565b82525050565b61220a816127a6565b82525050565b60006020820190506122256000830184611f3d565b92915050565b600060a0820190506122406000830188611f3d565b61224d6020830187611f3d565b818103604083015261225f8186611f4c565b905081810360608301526122738185611f4c565b905081810360808301526122878184611fb9565b90509695505050505050565b600060a0820190506122a86000830188611f3d565b6122b56020830187611f3d565b6122c26040830186612201565b6122cf6060830185612201565b81810360808301526122e18184611fb9565b90509695505050505050565b60006040820190506123026000830185611f3d565b61230f6020830184612201565b9392505050565b600060608201905061232b6000830186611f3d565b6123386020830185612201565b6123456040830184612201565b949350505050565b600060208201905081810360008301526123678184611f4c565b905092915050565b600060408201905081810360008301526123898185611f4c565b9050818103602083015261239d8184611f4c565b90509392505050565b60006020820190506123bb6000830184611faa565b92915050565b600060208201905081810360008301526123db8184611ff2565b905092915050565b600060208201905081810360008301526123fc8161202b565b9050919050565b6000602082019050818103600083015261241c8161204e565b9050919050565b6000602082019050818103600083015261243c81612071565b9050919050565b6000602082019050818103600083015261245c81612094565b9050919050565b6000602082019050818103600083015261247c816120b7565b9050919050565b6000602082019050818103600083015261249c816120da565b9050919050565b600060208201905081810360008301526124bc816120fd565b9050919050565b600060208201905081810360008301526124dc81612120565b9050919050565b600060208201905081810360008301526124fc81612143565b9050919050565b6000602082019050818103600083015261251c81612166565b9050919050565b6000602082019050818103600083015261253c81612189565b9050919050565b6000602082019050818103600083015261255c816121ac565b9050919050565b6000602082019050818103600083015261257c816121cf565b9050919050565b60006020820190506125986000830184612201565b92915050565b60006040820190506125b36000830185612201565b6125c06020830184612201565b9392505050565b60006125d16125e2565b90506125dd8282612824565b919050565b6000604051905090565b600067ffffffffffffffff8211156126075761260661292b565b5b602082029050602081019050919050565b600067ffffffffffffffff8211156126335761263261292b565b5b602082029050602081019050919050565b600067ffffffffffffffff82111561265f5761265e61292b565b5b61266882612995565b9050602081019050919050565b6000819050602082019050919050565b600081519050919050565b600081519050919050565b600081519050919050565b6000602082019050919050565b600082825260208201905092915050565b600082825260208201905092915050565b600082825260208201905092915050565b60006126f1826127a6565b91506126fc836127a6565b9250827fffffffffffffffffffffffffffffffffffffffffffffffffffffffffffffffff038211156127315761273061289e565b5b828201905092915050565b600061274782612786565b9050919050565b60008115159050919050565b60007fffffffff0000000000000000000000000000000000000000000000000000000082169050919050565b600073ffffffffffffffffffffffffffffffffffffffff82169050919050565b6000819050919050565b82818337600083830152505050565b60005b838110156127dd5780820151818401526020810190506127c2565b838111156127ec576000848401525b50505050565b6000600282049050600182168061280a57607f821691505b6020821081141561281e5761281d6128cd565b5b50919050565b61282d82612995565b810181811067ffffffffffffffff8211171561284c5761284b61292b565b5b80604052505050565b6000612860826127a6565b91507fffffffffffffffffffffffffffffffffffffffffffffffffffffffffffffffff8214156128935761289261289e565b5b600182019050919050565b7f4e487b7100000000000000000000000000000000000000000000000000000000600052601160045260246000fd5b7f4e487b7100000000000000000000000000000000000000000000000000000000600052602260045260246000fd5b7f4e487b7100000000000000000000000000000000000000000000000000000000600052603260045260246000fd5b7f4e487b7100000000000000000000000000000000000000000000000000000000600052604160045260246000fd5b600060033d11156129795760046000803e6129766000516129a6565b90505b90565b600080fd5b600080fd5b600080fd5b600080fd5b600080fd5b6000601f19601f8301169050919050565b60008160e01c9050919050565b7f455243313135353a204552433131353552656365697665722072656a6563746560008201527f6420746f6b656e73000000000000000000000000000000000000000000000000602082015250565b7f4f776e61626c653a206e6577206f776e657220697320746865207a65726f206160008201527f6464726573730000000000000000000000000000000000000000000000000000602082015250565b7f455243313135353a2061646472657373207a65726f206973206e6f742061207660008201527f616c6964206f776e657200000000000000000000000000000000000000000000602082015250565b7f455243313135353a2063616c6c6572206973206e6f7420746f6b656e206f776e60008201527f6572206f7220617070726f766564000000000000000000000000000000000000602082015250565b7f455243313135353a207472616e7366657220746f20746865207a65726f20616460008201527f6472657373000000000000000000000000000000000000000000000000000000602082015250565b7f455243313135353a20696e73756666696369656e742062616c616e636520666f60008201527f72207472616e7366657200000000000000000000000000000000000000000000602082015250565b7f4f776e61626c653a2063616c6c6572206973206e6f7420746865206f776e6572600082015250565b7f455243313135353a2073657474696e6720617070726f76616c2073746174757360008201527f20666f722073656c660000000000000000000000000000000000000000000000602082015250565b7f4e6f7420656e6f75676820636172626f6e206372656469747300000000000000600082015250565b7f455243313135353a206163636f756e747320616e6420696473206c656e67746860008201527f206d69736d617463680000000000000000000000000000000000000000000000602082015250565b7f455243313135353a2069647320616e6420616d6f756e7473206c656e6774682060008201527f6d69736d61746368000000000000000000000000000000000000000000000000602082015250565b7f455243313135353a206d696e7420746f20746865207a65726f2061646472657360008201527f7300000000000000000000000000000000000000000000000000000000000000602082015250565b7f455243313135353a207472616e7366657220746f206e6f6e2d4552433131353560008201527f526563656976657220696d706c656d656e746572000000000000000000000000602082015250565b600060443d1015612d7a57612dfd565b612d826125e2565b60043d036004823e80513d602482011167ffffffffffffffff82111715612daa575050612dfd565b808201805167ffffffffffffffff811115612dc85750505050612dfd565b80602083010160043d038501811115612de5575050505050612dfd565b612df482602001850186612824565b82955050505050505b90565b612e098161273c565b8114612e1457600080fd5b50565b612e208161274e565b8114612e2b57600080fd5b50565b612e378161275a565b8114612e4257600080fd5b50565b612e4e816127a6565b8114612e5957600080fd5b5056fea26469706673582212209382c58e546e549618207ce9e23369a892886af68caa43316589359068967c3264736f6c63430008060033",
  "immutableReferences": {},
  "source": "// SPDX-License-Identifier: MIT\r\npragma solidity ^0.8.0;\r\n\r\nimport \"./Bridge.sol\";\r\nimport \"./ERC1155Token.sol\";\r\n\r\nimport \"@openzeppelin/contracts/token/ERC1155/ERC1155.sol\";\r\nimport \"@openzeppelin/contracts/token/ERC20/IERC20.sol\";\r\nimport \"@openzeppelin/contracts/access/Ownable.sol\";\r\n\r\ncontract Offset is ERC1155, Ownable {\r\n    uint256 private _currentNFTId;\r\n\r\n    Bridge private _bridge;\r\n    ERC1155Token private _erc1155Token;\r\n\r\n    constructor(address bridgeAddress, address erc1155TokenAddress, string memory uri) ERC1155(uri) {\r\n        _bridge = Bridge(bridgeAddress);\r\n        _erc1155Token = ERC1155Token(erc1155TokenAddress);\r\n    }\r\n\r\n    function offsetCarbonCredits(\r\n        address user,\r\n        uint256 tokenId,\r\n        uint256 amount\r\n    ) external {\r\n        require(\r\n            _erc1155Token.balanceOf(user, tokenId) >= amount,\r\n            \"Not enough carbon credits\"\r\n        );\r\n\r\n        // Burn carbon credits\r\n        _erc1155Token.burn(user, tokenId, amount);\r\n\r\n        // Mint NFT receipt\r\n        _mint(user, _currentNFTId, 1, \"\");\r\n        _currentNFTId++;\r\n    }\r\n}\r\n",
  "sourcePath": "C:\\Users\\Sascha\\Documents\\GitHub\\EcoTRONomy\\my-app\\contracts\\Offset.sol",
  "compiler": {
    "name": "solc",
    "version": "0.8.6+commit.11564f7e.Emscripten.clang"
  },
  "schemaVersion": "3.4.13",
  "updatedAt": "2023-04-11T21:18:06.719Z",
  "networkType": "ethereum",
  "devdoc": {
    "kind": "dev",
    "methods": {
      "balanceOf(address,uint256)": {
        "details": "See {IERC1155-balanceOf}. Requirements: - `account` cannot be the zero address."
      },
      "balanceOfBatch(address[],uint256[])": {
        "details": "See {IERC1155-balanceOfBatch}. Requirements: - `accounts` and `ids` must have the same length."
      },
      "isApprovedForAll(address,address)": {
        "details": "See {IERC1155-isApprovedForAll}."
      },
      "owner()": {
        "details": "Returns the address of the current owner."
      },
      "renounceOwnership()": {
        "details": "Leaves the contract without owner. It will not be possible to call `onlyOwner` functions anymore. Can only be called by the current owner. NOTE: Renouncing ownership will leave the contract without an owner, thereby removing any functionality that is only available to the owner."
      },
      "safeBatchTransferFrom(address,address,uint256[],uint256[],bytes)": {
        "details": "See {IERC1155-safeBatchTransferFrom}."
      },
      "safeTransferFrom(address,address,uint256,uint256,bytes)": {
        "details": "See {IERC1155-safeTransferFrom}."
      },
      "setApprovalForAll(address,bool)": {
        "details": "See {IERC1155-setApprovalForAll}."
      },
      "supportsInterface(bytes4)": {
        "details": "See {IERC165-supportsInterface}."
      },
      "transferOwnership(address)": {
        "details": "Transfers ownership of the contract to a new account (`newOwner`). Can only be called by the current owner."
      },
      "uri(uint256)": {
        "details": "See {IERC1155MetadataURI-uri}. This implementation returns the same URI for *all* token types. It relies on the token type ID substitution mechanism https://eips.ethereum.org/EIPS/eip-1155#metadata[defined in the EIP]. Clients calling this function must replace the `\\{id\\}` substring with the actual token type ID."
      }
    },
    "version": 1
  },
  "userdoc": {
    "kind": "user",
    "methods": {},
    "version": 1
  }
}