{
  "contractName": "Treasury",
  "abi": [
    {
      "inputs": [
        {
          "internalType": "address",
          "name": "_bridge",
          "type": "address"
        },
        {
          "internalType": "address",
          "name": "_wrappedBCT",
          "type": "address"
        },
        {
          "internalType": "address",
          "name": "_bct",
          "type": "address"
        }
      ],
      "stateMutability": "nonpayable",
      "type": "constructor"
    },
    {
      "anonymous": false,
      "inputs": [
        {
          "indexed": true,
          "internalType": "address",
          "name": "previousOwner",
          "type": "address"
        },
        {
          "indexed": true,
          "internalType": "address",
          "name": "newOwner",
          "type": "address"
        }
      ],
      "name": "OwnershipTransferred",
      "type": "event"
    },
    {
      "inputs": [],
      "name": "bct",
      "outputs": [
        {
          "internalType": "contract IERC20",
          "name": "",
          "type": "address"
        }
      ],
      "stateMutability": "view",
      "type": "function",
      "constant": true
    },
    {
      "inputs": [],
      "name": "bridge",
      "outputs": [
        {
          "internalType": "contract Bridge",
          "name": "",
          "type": "address"
        }
      ],
      "stateMutability": "view",
      "type": "function",
      "constant": true
    },
    {
      "inputs": [],
      "name": "erc1155Token",
      "outputs": [
        {
          "internalType": "contract ERC1155Token",
          "name": "",
          "type": "address"
        }
      ],
      "stateMutability": "view",
      "type": "function",
      "constant": true
    },
    {
      "inputs": [],
      "name": "owner",
      "outputs": [
        {
          "internalType": "address",
          "name": "",
          "type": "address"
        }
      ],
      "stateMutability": "view",
      "type": "function",
      "constant": true
    },
    {
      "inputs": [],
      "name": "renounceOwnership",
      "outputs": [],
      "stateMutability": "nonpayable",
      "type": "function"
    },
    {
      "inputs": [
        {
          "internalType": "address",
          "name": "newOwner",
          "type": "address"
        }
      ],
      "name": "transferOwnership",
      "outputs": [],
      "stateMutability": "nonpayable",
      "type": "function"
    },
    {
      "inputs": [
        {
          "internalType": "address",
          "name": "",
          "type": "address"
        }
      ],
      "name": "whitelisted",
      "outputs": [
        {
          "internalType": "bool",
          "name": "",
          "type": "bool"
        }
      ],
      "stateMutability": "view",
      "type": "function",
      "constant": true
    },
    {
      "inputs": [],
      "name": "wrappedBCT",
      "outputs": [
        {
          "internalType": "contract WrappedBCT",
          "name": "",
          "type": "address"
        }
      ],
      "stateMutability": "view",
      "type": "function",
      "constant": true
    },
    {
      "inputs": [
        {
          "internalType": "address",
          "name": "account",
          "type": "address"
        }
      ],
      "name": "addToWhitelist",
      "outputs": [],
      "stateMutability": "nonpayable",
      "type": "function"
    },
    {
      "inputs": [
        {
          "internalType": "address",
          "name": "account",
          "type": "address"
        }
      ],
      "name": "removeFromWhitelist",
      "outputs": [],
      "stateMutability": "nonpayable",
      "type": "function"
    },
    {
      "inputs": [
        {
          "internalType": "uint256",
          "name": "amount",
          "type": "uint256"
        }
      ],
      "name": "wrap",
      "outputs": [],
      "stateMutability": "nonpayable",
      "type": "function"
    },
    {
      "inputs": [
        {
          "internalType": "uint256",
          "name": "amount",
          "type": "uint256"
        }
      ],
      "name": "bridgeTokens",
      "outputs": [],
      "stateMutability": "nonpayable",
      "type": "function"
    }
  ],
  "bytecode": "0x60806040523480156200001157600080fd5b50604051620013d4380380620013d4833981810160405281019062000037919062000301565b620000576200004b6200020760201b60201c565b6200020f60201b60201c565b82600460006101000a81548173ffffffffffffffffffffffffffffffffffffffff021916908373ffffffffffffffffffffffffffffffffffffffff16021790555081600260006101000a81548173ffffffffffffffffffffffffffffffffffffffff021916908373ffffffffffffffffffffffffffffffffffffffff16021790555080600360006101000a81548173ffffffffffffffffffffffffffffffffffffffff021916908373ffffffffffffffffffffffffffffffffffffffff160217905550600460009054906101000a900473ffffffffffffffffffffffffffffffffffffffff1673ffffffffffffffffffffffffffffffffffffffff166321f422686040518163ffffffff1660e01b815260040160206040518083038186803b1580156200018357600080fd5b505afa15801562000198573d6000803e3d6000fd5b505050506040513d601f19601f82011682018060405250810190620001be91906200035d565b600160006101000a81548173ffffffffffffffffffffffffffffffffffffffff021916908373ffffffffffffffffffffffffffffffffffffffff16021790555050505062000410565b600033905090565b60008060009054906101000a900473ffffffffffffffffffffffffffffffffffffffff169050816000806101000a81548173ffffffffffffffffffffffffffffffffffffffff021916908373ffffffffffffffffffffffffffffffffffffffff1602179055508173ffffffffffffffffffffffffffffffffffffffff168173ffffffffffffffffffffffffffffffffffffffff167f8be0079c531659141344cd1fd0a4f28419497f9722a3daafe3b4186f6b6457e060405160405180910390a35050565b600081519050620002e481620003dc565b92915050565b600081519050620002fb81620003f6565b92915050565b6000806000606084860312156200031d576200031c620003d7565b5b60006200032d86828701620002d3565b93505060206200034086828701620002d3565b92505060406200035386828701620002d3565b9150509250925092565b600060208284031215620003765762000375620003d7565b5b60006200038684828501620002ea565b91505092915050565b60006200039c82620003b7565b9050919050565b6000620003b0826200038f565b9050919050565b600073ffffffffffffffffffffffffffffffffffffffff82169050919050565b600080fd5b620003e7816200038f565b8114620003f357600080fd5b50565b6200040181620003a3565b81146200040d57600080fd5b50565b610fb480620004206000396000f3fe608060405234801561001057600080fd5b50600436106100b45760003560e01c8063ce4a1c7f11610071578063ce4a1c7f14610155578063d936547e14610173578063e43252d7146101a3578063e78cea92146101bf578063ea598cb0146101dd578063f2fde38b146101f9576100b4565b806321f42268146100b957806370e5a898146100d7578063715018a6146100f35780637ae381a5146100fd5780638ab1d6811461011b5780638da5cb5b14610137575b600080fd5b6100c1610215565b6040516100ce9190610cfc565b60405180910390f35b6100f160048036038101906100ec9190610ab2565b61023b565b005b6100fb61048f565b005b6101056104a3565b6040516101129190610d32565b60405180910390f35b61013560048036038101906101309190610a85565b6104c9565b005b61013f61052c565b60405161014c9190610c01565b60405180910390f35b61015d610555565b60405161016a9190610d17565b60405180910390f35b61018d60048036038101906101889190610a85565b61057b565b60405161019a9190610cc6565b60405180910390f35b6101bd60048036038101906101b89190610a85565b61059b565b005b6101c76105fe565b6040516101d49190610ce1565b60405180910390f35b6101f760048036038101906101f29190610ab2565b610624565b005b610213600480360381019061020e9190610a85565b610878565b005b600160009054906101000a900473ffffffffffffffffffffffffffffffffffffffff1681565b600560003373ffffffffffffffffffffffffffffffffffffffff1673ffffffffffffffffffffffffffffffffffffffff16815260200190815260200160002060009054906101000a900460ff166102c7576040517f08c379a00000000000000000000000000000000000000000000000000000000081526004016102be90610d6d565b60405180910390fd5b600260009054906101000a900473ffffffffffffffffffffffffffffffffffffffff1673ffffffffffffffffffffffffffffffffffffffff166339f4769333836040518363ffffffff1660e01b8152600401610324929190610c1c565b600060405180830381600087803b15801561033e57600080fd5b505af1158015610352573d6000803e3d6000fd5b505050506000600260009054906101000a900473ffffffffffffffffffffffffffffffffffffffff1673ffffffffffffffffffffffffffffffffffffffff1663010a38f56040518163ffffffff1660e01b815260040160206040518083038186803b1580156103c057600080fd5b505afa1580156103d4573d6000803e3d6000fd5b505050506040513d601f19601f820116820180604052508101906103f89190610adf565b9050600160009054906101000a900473ffffffffffffffffffffffffffffffffffffffff1673ffffffffffffffffffffffffffffffffffffffff1663f5298aca3383856040518463ffffffff1660e01b815260040161045993929190610c45565b600060405180830381600087803b15801561047357600080fd5b505af1158015610487573d6000803e3d6000fd5b505050505050565b6104976108fc565b6104a1600061097a565b565b600260009054906101000a900473ffffffffffffffffffffffffffffffffffffffff1681565b6104d16108fc565b6000600560008373ffffffffffffffffffffffffffffffffffffffff1673ffffffffffffffffffffffffffffffffffffffff16815260200190815260200160002060006101000a81548160ff02191690831515021790555050565b60008060009054906101000a900473ffffffffffffffffffffffffffffffffffffffff16905090565b600360009054906101000a900473ffffffffffffffffffffffffffffffffffffffff1681565b60056020528060005260406000206000915054906101000a900460ff1681565b6105a36108fc565b6001600560008373ffffffffffffffffffffffffffffffffffffffff1673ffffffffffffffffffffffffffffffffffffffff16815260200190815260200160002060006101000a81548160ff02191690831515021790555050565b600460009054906101000a900473ffffffffffffffffffffffffffffffffffffffff1681565b600560003373ffffffffffffffffffffffffffffffffffffffff1673ffffffffffffffffffffffffffffffffffffffff16815260200190815260200160002060009054906101000a900460ff166106b0576040517f08c379a00000000000000000000000000000000000000000000000000000000081526004016106a790610d6d565b60405180910390fd5b600260009054906101000a900473ffffffffffffffffffffffffffffffffffffffff1673ffffffffffffffffffffffffffffffffffffffff1663bf376c7a33836040518363ffffffff1660e01b815260040161070d929190610c1c565b600060405180830381600087803b15801561072757600080fd5b505af115801561073b573d6000803e3d6000fd5b505050506000600260009054906101000a900473ffffffffffffffffffffffffffffffffffffffff1673ffffffffffffffffffffffffffffffffffffffff1663010a38f56040518163ffffffff1660e01b815260040160206040518083038186803b1580156107a957600080fd5b505afa1580156107bd573d6000803e3d6000fd5b505050506040513d601f19601f820116820180604052508101906107e19190610adf565b9050600160009054906101000a900473ffffffffffffffffffffffffffffffffffffffff1673ffffffffffffffffffffffffffffffffffffffff1663731133e93383856040518463ffffffff1660e01b815260040161084293929190610c7c565b600060405180830381600087803b15801561085c57600080fd5b505af1158015610870573d6000803e3d6000fd5b505050505050565b6108806108fc565b600073ffffffffffffffffffffffffffffffffffffffff168173ffffffffffffffffffffffffffffffffffffffff1614156108f0576040517f08c379a00000000000000000000000000000000000000000000000000000000081526004016108e790610d4d565b60405180910390fd5b6108f98161097a565b50565b610904610a3e565b73ffffffffffffffffffffffffffffffffffffffff1661092261052c565b73ffffffffffffffffffffffffffffffffffffffff1614610978576040517f08c379a000000000000000000000000000000000000000000000000000000000815260040161096f90610d8d565b60405180910390fd5b565b60008060009054906101000a900473ffffffffffffffffffffffffffffffffffffffff169050816000806101000a81548173ffffffffffffffffffffffffffffffffffffffff021916908373ffffffffffffffffffffffffffffffffffffffff1602179055508173ffffffffffffffffffffffffffffffffffffffff168173ffffffffffffffffffffffffffffffffffffffff167f8be0079c531659141344cd1fd0a4f28419497f9722a3daafe3b4186f6b6457e060405160405180910390a35050565b600033905090565b600081359050610a5581610f50565b92915050565b600081359050610a6a81610f67565b92915050565b600081519050610a7f81610f67565b92915050565b600060208284031215610a9b57610a9a610ea7565b5b6000610aa984828501610a46565b91505092915050565b600060208284031215610ac857610ac7610ea7565b5b6000610ad684828501610a5b565b91505092915050565b600060208284031215610af557610af4610ea7565b5b6000610b0384828501610a70565b91505092915050565b610b1581610dcf565b82525050565b610b2481610de1565b82525050565b610b3381610e17565b82525050565b610b4281610e3b565b82525050565b610b5181610e5f565b82525050565b610b6081610e83565b82525050565b6000610b73602683610dbe565b9150610b7e82610eac565b604082019050919050565b6000610b96600f83610dbe565b9150610ba182610efb565b602082019050919050565b6000610bb9602083610dbe565b9150610bc482610f24565b602082019050919050565b6000610bdc600083610dad565b9150610be782610f4d565b600082019050919050565b610bfb81610e0d565b82525050565b6000602082019050610c166000830184610b0c565b92915050565b6000604082019050610c316000830185610b0c565b610c3e6020830184610bf2565b9392505050565b6000606082019050610c5a6000830186610b0c565b610c676020830185610bf2565b610c746040830184610bf2565b949350505050565b6000608082019050610c916000830186610b0c565b610c9e6020830185610bf2565b610cab6040830184610bf2565b8181036060830152610cbc81610bcf565b9050949350505050565b6000602082019050610cdb6000830184610b1b565b92915050565b6000602082019050610cf66000830184610b2a565b92915050565b6000602082019050610d116000830184610b39565b92915050565b6000602082019050610d2c6000830184610b48565b92915050565b6000602082019050610d476000830184610b57565b92915050565b60006020820190508181036000830152610d6681610b66565b9050919050565b60006020820190508181036000830152610d8681610b89565b9050919050565b60006020820190508181036000830152610da681610bac565b9050919050565b600082825260208201905092915050565b600082825260208201905092915050565b6000610dda82610ded565b9050919050565b60008115159050919050565b600073ffffffffffffffffffffffffffffffffffffffff82169050919050565b6000819050919050565b6000610e2282610e29565b9050919050565b6000610e3482610ded565b9050919050565b6000610e4682610e4d565b9050919050565b6000610e5882610ded565b9050919050565b6000610e6a82610e71565b9050919050565b6000610e7c82610ded565b9050919050565b6000610e8e82610e95565b9050919050565b6000610ea082610ded565b9050919050565b600080fd5b7f4f776e61626c653a206e6577206f776e657220697320746865207a65726f206160008201527f6464726573730000000000000000000000000000000000000000000000000000602082015250565b7f4e6f742077686974656c69737465640000000000000000000000000000000000600082015250565b7f4f776e61626c653a2063616c6c6572206973206e6f7420746865206f776e6572600082015250565b50565b610f5981610dcf565b8114610f6457600080fd5b50565b610f7081610e0d565b8114610f7b57600080fd5b5056fea264697066735822122084a678d12aec003b433df1a40d17605e8e3bc32cf7338a0566426fb77713272364736f6c63430008060033",
  "immutableReferences": {},
  "source": "// SPDX-License-Identifier: MIT\r\npragma solidity ^0.8.0;\r\n\r\nimport \"@openzeppelin/contracts/token/ERC20/IERC20.sol\";\r\nimport \"@openzeppelin/contracts/access/Ownable.sol\";\r\nimport \"./WrappedBCT.sol\";\r\nimport \"./ERC1155Token.sol\";\r\nimport \"./Bridge.sol\";\r\n\r\ncontract Treasury is Ownable {\r\n    ERC1155Token public erc1155Token;\r\n    WrappedBCT public wrappedBCT;\r\n    IERC20 public bct;\r\n    Bridge public bridge;\r\n    mapping(address => bool) public whitelisted;\r\n\r\n    constructor(address _bridge, address _wrappedBCT, address _bct) {\r\n        bridge = Bridge(_bridge);\r\n        wrappedBCT = WrappedBCT(_wrappedBCT);\r\n        bct = IERC20(_bct);\r\n        erc1155Token = ERC1155Token(bridge.erc1155Token());\r\n    }\r\n\r\n    function addToWhitelist(address account) public onlyOwner {\r\n        whitelisted[account] = true;\r\n    }\r\n\r\n    function removeFromWhitelist(address account) public onlyOwner {\r\n        whitelisted[account] = false;\r\n    }\r\n\r\n    function wrap(uint256 amount) public {\r\n        require(whitelisted[msg.sender], \"Not whitelisted\");\r\n        wrappedBCT.wrap(msg.sender, amount);\r\n        uint256 tokenId = wrappedBCT.getTokenId();\r\n        erc1155Token.mint(msg.sender, tokenId, amount, \"\");\r\n    }\r\n\r\n    function bridgeTokens(uint256 amount) public {\r\n        require(whitelisted[msg.sender], \"Not whitelisted\");\r\n        wrappedBCT.unwrap(msg.sender, amount);\r\n        uint256 tokenId = wrappedBCT.getTokenId();\r\n        erc1155Token.burn(msg.sender, tokenId, amount);\r\n    }\r\n}\r\n",
  "sourcePath": "C:\\Users\\Sascha\\Documents\\GitHub\\EcoTRONomy\\my-app\\contracts\\Treasury.sol",
  "compiler": {
    "name": "solc",
    "version": "0.8.6+commit.11564f7e.Emscripten.clang"
  },
  "schemaVersion": "3.4.13",
  "updatedAt": "2023-04-11T21:18:06.733Z",
  "networkType": "ethereum",
  "devdoc": {
    "kind": "dev",
    "methods": {
      "owner()": {
        "details": "Returns the address of the current owner."
      },
      "renounceOwnership()": {
        "details": "Leaves the contract without owner. It will not be possible to call `onlyOwner` functions anymore. Can only be called by the current owner. NOTE: Renouncing ownership will leave the contract without an owner, thereby removing any functionality that is only available to the owner."
      },
      "transferOwnership(address)": {
        "details": "Transfers ownership of the contract to a new account (`newOwner`). Can only be called by the current owner."
      }
    },
    "version": 1
  },
  "userdoc": {
    "kind": "user",
    "methods": {},
    "version": 1
  }
}