{
  "contractName": "WrappedBCT",
  "abi": [
    {
      "inputs": [
        {
          "internalType": "address",
          "name": "_wrappedToken",
          "type": "address"
        },
        {
          "internalType": "uint256",
          "name": "_tokenId",
          "type": "uint256"
        }
      ],
      "stateMutability": "nonpayable",
      "type": "constructor"
    },
    {
      "anonymous": false,
      "inputs": [
        {
          "indexed": true,
          "internalType": "address",
          "name": "owner",
          "type": "address"
        },
        {
          "indexed": true,
          "internalType": "address",
          "name": "spender",
          "type": "address"
        },
        {
          "indexed": false,
          "internalType": "uint256",
          "name": "value",
          "type": "uint256"
        }
      ],
      "name": "Approval",
      "type": "event"
    },
    {
      "anonymous": false,
      "inputs": [
        {
          "indexed": true,
          "internalType": "address",
          "name": "previousOwner",
          "type": "address"
        },
        {
          "indexed": true,
          "internalType": "address",
          "name": "newOwner",
          "type": "address"
        }
      ],
      "name": "OwnershipTransferred",
      "type": "event"
    },
    {
      "anonymous": false,
      "inputs": [
        {
          "indexed": true,
          "internalType": "address",
          "name": "from",
          "type": "address"
        },
        {
          "indexed": true,
          "internalType": "address",
          "name": "to",
          "type": "address"
        },
        {
          "indexed": false,
          "internalType": "uint256",
          "name": "value",
          "type": "uint256"
        }
      ],
      "name": "Transfer",
      "type": "event"
    },
    {
      "inputs": [
        {
          "internalType": "address",
          "name": "owner",
          "type": "address"
        },
        {
          "internalType": "address",
          "name": "spender",
          "type": "address"
        }
      ],
      "name": "allowance",
      "outputs": [
        {
          "internalType": "uint256",
          "name": "",
          "type": "uint256"
        }
      ],
      "stateMutability": "view",
      "type": "function",
      "constant": true
    },
    {
      "inputs": [
        {
          "internalType": "address",
          "name": "spender",
          "type": "address"
        },
        {
          "internalType": "uint256",
          "name": "amount",
          "type": "uint256"
        }
      ],
      "name": "approve",
      "outputs": [
        {
          "internalType": "bool",
          "name": "",
          "type": "bool"
        }
      ],
      "stateMutability": "nonpayable",
      "type": "function"
    },
    {
      "inputs": [
        {
          "internalType": "address",
          "name": "account",
          "type": "address"
        }
      ],
      "name": "balanceOf",
      "outputs": [
        {
          "internalType": "uint256",
          "name": "",
          "type": "uint256"
        }
      ],
      "stateMutability": "view",
      "type": "function",
      "constant": true
    },
    {
      "inputs": [],
      "name": "decimals",
      "outputs": [
        {
          "internalType": "uint8",
          "name": "",
          "type": "uint8"
        }
      ],
      "stateMutability": "view",
      "type": "function",
      "constant": true
    },
    {
      "inputs": [
        {
          "internalType": "address",
          "name": "spender",
          "type": "address"
        },
        {
          "internalType": "uint256",
          "name": "subtractedValue",
          "type": "uint256"
        }
      ],
      "name": "decreaseAllowance",
      "outputs": [
        {
          "internalType": "bool",
          "name": "",
          "type": "bool"
        }
      ],
      "stateMutability": "nonpayable",
      "type": "function"
    },
    {
      "inputs": [
        {
          "internalType": "address",
          "name": "spender",
          "type": "address"
        },
        {
          "internalType": "uint256",
          "name": "addedValue",
          "type": "uint256"
        }
      ],
      "name": "increaseAllowance",
      "outputs": [
        {
          "internalType": "bool",
          "name": "",
          "type": "bool"
        }
      ],
      "stateMutability": "nonpayable",
      "type": "function"
    },
    {
      "inputs": [],
      "name": "name",
      "outputs": [
        {
          "internalType": "string",
          "name": "",
          "type": "string"
        }
      ],
      "stateMutability": "view",
      "type": "function",
      "constant": true
    },
    {
      "inputs": [],
      "name": "owner",
      "outputs": [
        {
          "internalType": "address",
          "name": "",
          "type": "address"
        }
      ],
      "stateMutability": "view",
      "type": "function",
      "constant": true
    },
    {
      "inputs": [],
      "name": "renounceOwnership",
      "outputs": [],
      "stateMutability": "nonpayable",
      "type": "function"
    },
    {
      "inputs": [],
      "name": "symbol",
      "outputs": [
        {
          "internalType": "string",
          "name": "",
          "type": "string"
        }
      ],
      "stateMutability": "view",
      "type": "function",
      "constant": true
    },
    {
      "inputs": [],
      "name": "tokenId",
      "outputs": [
        {
          "internalType": "uint256",
          "name": "",
          "type": "uint256"
        }
      ],
      "stateMutability": "view",
      "type": "function",
      "constant": true
    },
    {
      "inputs": [],
      "name": "totalSupply",
      "outputs": [
        {
          "internalType": "uint256",
          "name": "",
          "type": "uint256"
        }
      ],
      "stateMutability": "view",
      "type": "function",
      "constant": true
    },
    {
      "inputs": [
        {
          "internalType": "address",
          "name": "to",
          "type": "address"
        },
        {
          "internalType": "uint256",
          "name": "amount",
          "type": "uint256"
        }
      ],
      "name": "transfer",
      "outputs": [
        {
          "internalType": "bool",
          "name": "",
          "type": "bool"
        }
      ],
      "stateMutability": "nonpayable",
      "type": "function"
    },
    {
      "inputs": [
        {
          "internalType": "address",
          "name": "from",
          "type": "address"
        },
        {
          "internalType": "address",
          "name": "to",
          "type": "address"
        },
        {
          "internalType": "uint256",
          "name": "amount",
          "type": "uint256"
        }
      ],
      "name": "transferFrom",
      "outputs": [
        {
          "internalType": "bool",
          "name": "",
          "type": "bool"
        }
      ],
      "stateMutability": "nonpayable",
      "type": "function"
    },
    {
      "inputs": [
        {
          "internalType": "address",
          "name": "newOwner",
          "type": "address"
        }
      ],
      "name": "transferOwnership",
      "outputs": [],
      "stateMutability": "nonpayable",
      "type": "function"
    },
    {
      "inputs": [],
      "name": "wrappedToken",
      "outputs": [
        {
          "internalType": "contract IERC20",
          "name": "",
          "type": "address"
        }
      ],
      "stateMutability": "view",
      "type": "function",
      "constant": true
    },
    {
      "inputs": [
        {
          "internalType": "address",
          "name": "user",
          "type": "address"
        },
        {
          "internalType": "uint256",
          "name": "amount",
          "type": "uint256"
        }
      ],
      "name": "wrap",
      "outputs": [],
      "stateMutability": "nonpayable",
      "type": "function"
    },
    {
      "inputs": [
        {
          "internalType": "address",
          "name": "user",
          "type": "address"
        },
        {
          "internalType": "uint256",
          "name": "amount",
          "type": "uint256"
        }
      ],
      "name": "unwrap",
      "outputs": [],
      "stateMutability": "nonpayable",
      "type": "function"
    },
    {
      "inputs": [],
      "name": "getTokenId",
      "outputs": [
        {
          "internalType": "uint256",
          "name": "",
          "type": "uint256"
        }
      ],
      "stateMutability": "view",
      "type": "function",
      "constant": true
    }
  ],
  "bytecode": "0x60806040523480156200001157600080fd5b5060405162002359380380620023598339818101604052810190620000379190620002f3565b6040518060400160405280600a81526020017f57726170706564424354000000000000000000000000000000000000000000008152506040518060400160405280600481526020017f57424354000000000000000000000000000000000000000000000000000000008152508160039080519060200190620000bb92919062000215565b508060049080519060200190620000d492919062000215565b505050620000f7620000eb6200014760201b60201c565b6200014f60201b60201c565b81600660006101000a81548173ffffffffffffffffffffffffffffffffffffffff021916908373ffffffffffffffffffffffffffffffffffffffff16021790555080600781905550505062000416565b600033905090565b6000600560009054906101000a900473ffffffffffffffffffffffffffffffffffffffff16905081600560006101000a81548173ffffffffffffffffffffffffffffffffffffffff021916908373ffffffffffffffffffffffffffffffffffffffff1602179055508173ffffffffffffffffffffffffffffffffffffffff168173ffffffffffffffffffffffffffffffffffffffff167f8be0079c531659141344cd1fd0a4f28419497f9722a3daafe3b4186f6b6457e060405160405180910390a35050565b828054620002239062000378565b90600052602060002090601f01602090048101928262000247576000855562000293565b82601f106200026257805160ff191683800117855562000293565b8280016001018555821562000293579182015b828111156200029257825182559160200191906001019062000275565b5b509050620002a29190620002a6565b5090565b5b80821115620002c1576000816000905550600101620002a7565b5090565b600081519050620002d681620003e2565b92915050565b600081519050620002ed81620003fc565b92915050565b600080604083850312156200030d576200030c620003dd565b5b60006200031d85828601620002c5565b92505060206200033085828601620002dc565b9150509250929050565b600062000347826200034e565b9050919050565b600073ffffffffffffffffffffffffffffffffffffffff82169050919050565b6000819050919050565b600060028204905060018216806200039157607f821691505b60208210811415620003a857620003a7620003ae565b5b50919050565b7f4e487b7100000000000000000000000000000000000000000000000000000000600052602260045260246000fd5b600080fd5b620003ed816200033a565b8114620003f957600080fd5b50565b62000407816200036e565b81146200041357600080fd5b50565b611f3380620004266000396000f3fe608060405234801561001057600080fd5b50600436106101215760003560e01c806370a08231116100ad578063a457c2d711610071578063a457c2d7146102fc578063a9059cbb1461032c578063bf376c7a1461035c578063dd62ed3e14610378578063f2fde38b146103a857610121565b806370a0823114610268578063715018a6146102985780638da5cb5b146102a257806395d89b41146102c0578063996c6cc3146102de57610121565b806318160ddd116100f457806318160ddd146101b057806323b872dd146101ce578063313ce567146101fe578063395093511461021c57806339f476931461024c57610121565b8063010a38f51461012657806306fdde0314610144578063095ea7b31461016257806317d70f7c14610192575b600080fd5b61012e6103c4565b60405161013b9190611953565b60405180910390f35b61014c6103ce565b6040516101599190611791565b60405180910390f35b61017c60048036038101906101779190611428565b610460565b604051610189919061175b565b60405180910390f35b61019a610483565b6040516101a79190611953565b60405180910390f35b6101b8610489565b6040516101c59190611953565b60405180910390f35b6101e860048036038101906101e391906113d5565b610493565b6040516101f5919061175b565b60405180910390f35b6102066104c2565b604051610213919061196e565b60405180910390f35b61023660048036038101906102319190611428565b6104cb565b604051610243919061175b565b60405180910390f35b61026660048036038101906102619190611428565b610502565b005b610282600480360381019061027d9190611368565b6105fe565b60405161028f9190611953565b60405180910390f35b6102a0610646565b005b6102aa61065a565b6040516102b791906116e0565b60405180910390f35b6102c8610684565b6040516102d59190611791565b60405180910390f35b6102e6610716565b6040516102f39190611776565b60405180910390f35b61031660048036038101906103119190611428565b61073c565b604051610323919061175b565b60405180910390f35b61034660048036038101906103419190611428565b6107b3565b604051610353919061175b565b60405180910390f35b61037660048036038101906103719190611428565b6107d6565b005b610392600480360381019061038d9190611395565b6108d4565b60405161039f9190611953565b60405180910390f35b6103c260048036038101906103bd9190611368565b61095b565b005b6000600754905090565b6060600380546103dd90611aa7565b80601f016020809104026020016040519081016040528092919081815260200182805461040990611aa7565b80156104565780601f1061042b57610100808354040283529160200191610456565b820191906000526020600020905b81548152906001019060200180831161043957829003601f168201915b5050505050905090565b60008061046b6109df565b90506104788185856109e7565b600191505092915050565b60075481565b6000600254905090565b60008061049e6109df565b90506104ab858285610bb2565b6104b6858585610c3e565b60019150509392505050565b60006012905090565b6000806104d66109df565b90506104f78185856104e885896108d4565b6104f291906119a5565b6109e7565b600191505092915050565b61050c8282610eb6565b600660009054906101000a900473ffffffffffffffffffffffffffffffffffffffff1673ffffffffffffffffffffffffffffffffffffffff1663a9059cbb83836040518363ffffffff1660e01b8152600401610569929190611732565b602060405180830381600087803b15801561058357600080fd5b505af1158015610597573d6000803e3d6000fd5b505050506040513d601f19601f820116820180604052508101906105bb9190611468565b6105fa576040517f08c379a00000000000000000000000000000000000000000000000000000000081526004016105f1906118b3565b60405180910390fd5b5050565b60008060008373ffffffffffffffffffffffffffffffffffffffff1673ffffffffffffffffffffffffffffffffffffffff168152602001908152602001600020549050919050565b61064e611084565b6106586000611102565b565b6000600560009054906101000a900473ffffffffffffffffffffffffffffffffffffffff16905090565b60606004805461069390611aa7565b80601f01602080910402602001604051908101604052809291908181526020018280546106bf90611aa7565b801561070c5780601f106106e15761010080835404028352916020019161070c565b820191906000526020600020905b8154815290600101906020018083116106ef57829003601f168201915b5050505050905090565b600660009054906101000a900473ffffffffffffffffffffffffffffffffffffffff1681565b6000806107476109df565b9050600061075582866108d4565b90508381101561079a576040517f08c379a000000000000000000000000000000000000000000000000000000000815260040161079190611913565b60405180910390fd5b6107a782868684036109e7565b60019250505092915050565b6000806107be6109df565b90506107cb818585610c3e565b600191505092915050565b600660009054906101000a900473ffffffffffffffffffffffffffffffffffffffff1673ffffffffffffffffffffffffffffffffffffffff166323b872dd8330846040518463ffffffff1660e01b8152600401610835939291906116fb565b602060405180830381600087803b15801561084f57600080fd5b505af1158015610863573d6000803e3d6000fd5b505050506040513d601f19601f820116820180604052508101906108879190611468565b6108c6576040517f08c379a00000000000000000000000000000000000000000000000000000000081526004016108bd906118b3565b60405180910390fd5b6108d082826111c8565b5050565b6000600160008473ffffffffffffffffffffffffffffffffffffffff1673ffffffffffffffffffffffffffffffffffffffff16815260200190815260200160002060008373ffffffffffffffffffffffffffffffffffffffff1673ffffffffffffffffffffffffffffffffffffffff16815260200190815260200160002054905092915050565b610963611084565b600073ffffffffffffffffffffffffffffffffffffffff168173ffffffffffffffffffffffffffffffffffffffff1614156109d3576040517f08c379a00000000000000000000000000000000000000000000000000000000081526004016109ca906117f3565b60405180910390fd5b6109dc81611102565b50565b600033905090565b600073ffffffffffffffffffffffffffffffffffffffff168373ffffffffffffffffffffffffffffffffffffffff161415610a57576040517f08c379a0000000000000000000000000000000000000000000000000000000008152600401610a4e906118f3565b60405180910390fd5b600073ffffffffffffffffffffffffffffffffffffffff168273ffffffffffffffffffffffffffffffffffffffff161415610ac7576040517f08c379a0000000000000000000000000000000000000000000000000000000008152600401610abe90611813565b60405180910390fd5b80600160008573ffffffffffffffffffffffffffffffffffffffff1673ffffffffffffffffffffffffffffffffffffffff16815260200190815260200160002060008473ffffffffffffffffffffffffffffffffffffffff1673ffffffffffffffffffffffffffffffffffffffff168152602001908152602001600020819055508173ffffffffffffffffffffffffffffffffffffffff168373ffffffffffffffffffffffffffffffffffffffff167f8c5be1e5ebec7d5bd14f71427d1e84f3dd0314c0f7b2291e5b200ac8c7c3b92583604051610ba59190611953565b60405180910390a3505050565b6000610bbe84846108d4565b90507fffffffffffffffffffffffffffffffffffffffffffffffffffffffffffffffff8114610c385781811015610c2a576040517f08c379a0000000000000000000000000000000000000000000000000000000008152600401610c2190611833565b60405180910390fd5b610c3784848484036109e7565b5b50505050565b600073ffffffffffffffffffffffffffffffffffffffff168373ffffffffffffffffffffffffffffffffffffffff161415610cae576040517f08c379a0000000000000000000000000000000000000000000000000000000008152600401610ca5906118d3565b60405180910390fd5b600073ffffffffffffffffffffffffffffffffffffffff168273ffffffffffffffffffffffffffffffffffffffff161415610d1e576040517f08c379a0000000000000000000000000000000000000000000000000000000008152600401610d15906117b3565b60405180910390fd5b610d2983838361131f565b60008060008573ffffffffffffffffffffffffffffffffffffffff1673ffffffffffffffffffffffffffffffffffffffff16815260200190815260200160002054905081811015610daf576040517f08c379a0000000000000000000000000000000000000000000000000000000008152600401610da690611853565b60405180910390fd5b8181036000808673ffffffffffffffffffffffffffffffffffffffff1673ffffffffffffffffffffffffffffffffffffffff16815260200190815260200160002081905550816000808573ffffffffffffffffffffffffffffffffffffffff1673ffffffffffffffffffffffffffffffffffffffff168152602001908152602001600020600082825401925050819055508273ffffffffffffffffffffffffffffffffffffffff168473ffffffffffffffffffffffffffffffffffffffff167fddf252ad1be2c89b69c2b068fc378daa952ba7f163c4a11628f55a4df523b3ef84604051610e9d9190611953565b60405180910390a3610eb0848484611324565b50505050565b600073ffffffffffffffffffffffffffffffffffffffff168273ffffffffffffffffffffffffffffffffffffffff161415610f26576040517f08c379a0000000000000000000000000000000000000000000000000000000008152600401610f1d90611893565b60405180910390fd5b610f328260008361131f565b60008060008473ffffffffffffffffffffffffffffffffffffffff1673ffffffffffffffffffffffffffffffffffffffff16815260200190815260200160002054905081811015610fb8576040517f08c379a0000000000000000000000000000000000000000000000000000000008152600401610faf906117d3565b60405180910390fd5b8181036000808573ffffffffffffffffffffffffffffffffffffffff1673ffffffffffffffffffffffffffffffffffffffff1681526020019081526020016000208190555081600260008282540392505081905550600073ffffffffffffffffffffffffffffffffffffffff168373ffffffffffffffffffffffffffffffffffffffff167fddf252ad1be2c89b69c2b068fc378daa952ba7f163c4a11628f55a4df523b3ef8460405161106b9190611953565b60405180910390a361107f83600084611324565b505050565b61108c6109df565b73ffffffffffffffffffffffffffffffffffffffff166110aa61065a565b73ffffffffffffffffffffffffffffffffffffffff1614611100576040517f08c379a00000000000000000000000000000000000000000000000000000000081526004016110f790611873565b60405180910390fd5b565b6000600560009054906101000a900473ffffffffffffffffffffffffffffffffffffffff16905081600560006101000a81548173ffffffffffffffffffffffffffffffffffffffff021916908373ffffffffffffffffffffffffffffffffffffffff1602179055508173ffffffffffffffffffffffffffffffffffffffff168173ffffffffffffffffffffffffffffffffffffffff167f8be0079c531659141344cd1fd0a4f28419497f9722a3daafe3b4186f6b6457e060405160405180910390a35050565b600073ffffffffffffffffffffffffffffffffffffffff168273ffffffffffffffffffffffffffffffffffffffff161415611238576040517f08c379a000000000000000000000000000000000000000000000000000000000815260040161122f90611933565b60405180910390fd5b6112446000838361131f565b806002600082825461125691906119a5565b92505081905550806000808473ffffffffffffffffffffffffffffffffffffffff1673ffffffffffffffffffffffffffffffffffffffff168152602001908152602001600020600082825401925050819055508173ffffffffffffffffffffffffffffffffffffffff16600073ffffffffffffffffffffffffffffffffffffffff167fddf252ad1be2c89b69c2b068fc378daa952ba7f163c4a11628f55a4df523b3ef836040516113079190611953565b60405180910390a361131b60008383611324565b5050565b505050565b505050565b60008135905061133881611eb8565b92915050565b60008151905061134d81611ecf565b92915050565b60008135905061136281611ee6565b92915050565b60006020828403121561137e5761137d611b37565b5b600061138c84828501611329565b91505092915050565b600080604083850312156113ac576113ab611b37565b5b60006113ba85828601611329565b92505060206113cb85828601611329565b9150509250929050565b6000806000606084860312156113ee576113ed611b37565b5b60006113fc86828701611329565b935050602061140d86828701611329565b925050604061141e86828701611353565b9150509250925092565b6000806040838503121561143f5761143e611b37565b5b600061144d85828601611329565b925050602061145e85828601611353565b9150509250929050565b60006020828403121561147e5761147d611b37565b5b600061148c8482850161133e565b91505092915050565b61149e816119fb565b82525050565b6114ad81611a0d565b82525050565b6114bc81611a50565b82525050565b60006114cd82611989565b6114d78185611994565b93506114e7818560208601611a74565b6114f081611b3c565b840191505092915050565b6000611508602383611994565b915061151382611b4d565b604082019050919050565b600061152b602283611994565b915061153682611b9c565b604082019050919050565b600061154e602683611994565b915061155982611beb565b604082019050919050565b6000611571602283611994565b915061157c82611c3a565b604082019050919050565b6000611594601d83611994565b915061159f82611c89565b602082019050919050565b60006115b7602683611994565b91506115c282611cb2565b604082019050919050565b60006115da602083611994565b91506115e582611d01565b602082019050919050565b60006115fd602183611994565b915061160882611d2a565b604082019050919050565b6000611620601b83611994565b915061162b82611d79565b602082019050919050565b6000611643602583611994565b915061164e82611da2565b604082019050919050565b6000611666602483611994565b915061167182611df1565b604082019050919050565b6000611689602583611994565b915061169482611e40565b604082019050919050565b60006116ac601f83611994565b91506116b782611e8f565b602082019050919050565b6116cb81611a39565b82525050565b6116da81611a43565b82525050565b60006020820190506116f56000830184611495565b92915050565b60006060820190506117106000830186611495565b61171d6020830185611495565b61172a60408301846116c2565b949350505050565b60006040820190506117476000830185611495565b61175460208301846116c2565b9392505050565b600060208201905061177060008301846114a4565b92915050565b600060208201905061178b60008301846114b3565b92915050565b600060208201905081810360008301526117ab81846114c2565b905092915050565b600060208201905081810360008301526117cc816114fb565b9050919050565b600060208201905081810360008301526117ec8161151e565b9050919050565b6000602082019050818103600083015261180c81611541565b9050919050565b6000602082019050818103600083015261182c81611564565b9050919050565b6000602082019050818103600083015261184c81611587565b9050919050565b6000602082019050818103600083015261186c816115aa565b9050919050565b6000602082019050818103600083015261188c816115cd565b9050919050565b600060208201905081810360008301526118ac816115f0565b9050919050565b600060208201905081810360008301526118cc81611613565b9050919050565b600060208201905081810360008301526118ec81611636565b9050919050565b6000602082019050818103600083015261190c81611659565b9050919050565b6000602082019050818103600083015261192c8161167c565b9050919050565b6000602082019050818103600083015261194c8161169f565b9050919050565b600060208201905061196860008301846116c2565b92915050565b600060208201905061198360008301846116d1565b92915050565b600081519050919050565b600082825260208201905092915050565b60006119b082611a39565b91506119bb83611a39565b9250827fffffffffffffffffffffffffffffffffffffffffffffffffffffffffffffffff038211156119f0576119ef611ad9565b5b828201905092915050565b6000611a0682611a19565b9050919050565b60008115159050919050565b600073ffffffffffffffffffffffffffffffffffffffff82169050919050565b6000819050919050565b600060ff82169050919050565b6000611a5b82611a62565b9050919050565b6000611a6d82611a19565b9050919050565b60005b83811015611a92578082015181840152602081019050611a77565b83811115611aa1576000848401525b50505050565b60006002820490506001821680611abf57607f821691505b60208210811415611ad357611ad2611b08565b5b50919050565b7f4e487b7100000000000000000000000000000000000000000000000000000000600052601160045260246000fd5b7f4e487b7100000000000000000000000000000000000000000000000000000000600052602260045260246000fd5b600080fd5b6000601f19601f8301169050919050565b7f45524332303a207472616e7366657220746f20746865207a65726f206164647260008201527f6573730000000000000000000000000000000000000000000000000000000000602082015250565b7f45524332303a206275726e20616d6f756e7420657863656564732062616c616e60008201527f6365000000000000000000000000000000000000000000000000000000000000602082015250565b7f4f776e61626c653a206e6577206f776e657220697320746865207a65726f206160008201527f6464726573730000000000000000000000000000000000000000000000000000602082015250565b7f45524332303a20617070726f766520746f20746865207a65726f20616464726560008201527f7373000000000000000000000000000000000000000000000000000000000000602082015250565b7f45524332303a20696e73756666696369656e7420616c6c6f77616e6365000000600082015250565b7f45524332303a207472616e7366657220616d6f756e742065786365656473206260008201527f616c616e63650000000000000000000000000000000000000000000000000000602082015250565b7f4f776e61626c653a2063616c6c6572206973206e6f7420746865206f776e6572600082015250565b7f45524332303a206275726e2066726f6d20746865207a65726f2061646472657360008201527f7300000000000000000000000000000000000000000000000000000000000000602082015250565b7f577261707065644243543a205472616e73666572206661696c65640000000000600082015250565b7f45524332303a207472616e736665722066726f6d20746865207a65726f20616460008201527f6472657373000000000000000000000000000000000000000000000000000000602082015250565b7f45524332303a20617070726f76652066726f6d20746865207a65726f2061646460008201527f7265737300000000000000000000000000000000000000000000000000000000602082015250565b7f45524332303a2064656372656173656420616c6c6f77616e63652062656c6f7760008201527f207a65726f000000000000000000000000000000000000000000000000000000602082015250565b7f45524332303a206d696e7420746f20746865207a65726f206164647265737300600082015250565b611ec1816119fb565b8114611ecc57600080fd5b50565b611ed881611a0d565b8114611ee357600080fd5b50565b611eef81611a39565b8114611efa57600080fd5b5056fea26469706673582212206e1d1c58ada82201c0b990d8e59235080f0a4b779c14a2436533a6b3f66f2f1e64736f6c63430008060033",
  "immutableReferences": {},
  "source": "// SPDX-License-Identifier: MIT\r\npragma solidity ^0.8.0;\r\n\r\nimport \"@openzeppelin/contracts/token/ERC20/ERC20.sol\";\r\nimport \"@openzeppelin/contracts/access/Ownable.sol\";\r\n\r\ncontract WrappedBCT is ERC20, Ownable {\r\n    IERC20 public wrappedToken;\r\n    uint256 public tokenId;\r\n\r\n    constructor(address _wrappedToken, uint256 _tokenId)\r\n        ERC20(\"WrappedBCT\", \"WBCT\")\r\n    {\r\n        wrappedToken = IERC20(_wrappedToken);\r\n        tokenId = _tokenId;\r\n    }\r\n\r\n    function wrap(address user, uint256 amount) external {\r\n        require(\r\n            wrappedToken.transferFrom(user, address(this), amount),\r\n            \"WrappedBCT: Transfer failed\"\r\n        );\r\n        _mint(user, amount);\r\n    }\r\n\r\n    function unwrap(address user, uint256 amount) external {\r\n        _burn(user, amount);\r\n        require(\r\n            wrappedToken.transfer(user, amount),\r\n            \"WrappedBCT: Transfer failed\"\r\n        );\r\n    }\r\n\r\n    function getTokenId() external view returns (uint256) {\r\n        return tokenId;\r\n    }\r\n}\r\n",
  "sourcePath": "C:\\Users\\Sascha\\Documents\\GitHub\\EcoTRONomy\\my-app\\contracts\\WrappedBCT.sol",
  "compiler": {
    "name": "solc",
    "version": "0.8.6+commit.11564f7e.Emscripten.clang"
  },
  "schemaVersion": "3.4.13",
  "updatedAt": "2023-04-11T21:18:06.741Z",
  "networkType": "ethereum",
  "devdoc": {
    "kind": "dev",
    "methods": {
      "allowance(address,address)": {
        "details": "See {IERC20-allowance}."
      },
      "approve(address,uint256)": {
        "details": "See {IERC20-approve}. NOTE: If `amount` is the maximum `uint256`, the allowance is not updated on `transferFrom`. This is semantically equivalent to an infinite approval. Requirements: - `spender` cannot be the zero address."
      },
      "balanceOf(address)": {
        "details": "See {IERC20-balanceOf}."
      },
      "decimals()": {
        "details": "Returns the number of decimals used to get its user representation. For example, if `decimals` equals `2`, a balance of `505` tokens should be displayed to a user as `5.05` (`505 / 10 ** 2`). Tokens usually opt for a value of 18, imitating the relationship between Ether and Wei. This is the value {ERC20} uses, unless this function is overridden; NOTE: This information is only used for _display_ purposes: it in no way affects any of the arithmetic of the contract, including {IERC20-balanceOf} and {IERC20-transfer}."
      },
      "decreaseAllowance(address,uint256)": {
        "details": "Atomically decreases the allowance granted to `spender` by the caller. This is an alternative to {approve} that can be used as a mitigation for problems described in {IERC20-approve}. Emits an {Approval} event indicating the updated allowance. Requirements: - `spender` cannot be the zero address. - `spender` must have allowance for the caller of at least `subtractedValue`."
      },
      "increaseAllowance(address,uint256)": {
        "details": "Atomically increases the allowance granted to `spender` by the caller. This is an alternative to {approve} that can be used as a mitigation for problems described in {IERC20-approve}. Emits an {Approval} event indicating the updated allowance. Requirements: - `spender` cannot be the zero address."
      },
      "name()": {
        "details": "Returns the name of the token."
      },
      "owner()": {
        "details": "Returns the address of the current owner."
      },
      "renounceOwnership()": {
        "details": "Leaves the contract without owner. It will not be possible to call `onlyOwner` functions anymore. Can only be called by the current owner. NOTE: Renouncing ownership will leave the contract without an owner, thereby removing any functionality that is only available to the owner."
      },
      "symbol()": {
        "details": "Returns the symbol of the token, usually a shorter version of the name."
      },
      "totalSupply()": {
        "details": "See {IERC20-totalSupply}."
      },
      "transfer(address,uint256)": {
        "details": "See {IERC20-transfer}. Requirements: - `to` cannot be the zero address. - the caller must have a balance of at least `amount`."
      },
      "transferFrom(address,address,uint256)": {
        "details": "See {IERC20-transferFrom}. Emits an {Approval} event indicating the updated allowance. This is not required by the EIP. See the note at the beginning of {ERC20}. NOTE: Does not update the allowance if the current allowance is the maximum `uint256`. Requirements: - `from` and `to` cannot be the zero address. - `from` must have a balance of at least `amount`. - the caller must have allowance for ``from``'s tokens of at least `amount`."
      },
      "transferOwnership(address)": {
        "details": "Transfers ownership of the contract to a new account (`newOwner`). Can only be called by the current owner."
      }
    },
    "version": 1
  },
  "userdoc": {
    "kind": "user",
    "methods": {},
    "version": 1
  }
}