{
  "_format": "hh-sol-artifact-1",
  "contractName": "CarbonCreditBridge",
  "sourceName": "contracts/BridgeContract.sol",
  "abi": [
    {
      "inputs": [
        {
          "internalType": "address",
          "name": "_carbonCreditERC1155",
          "type": "address"
        }
      ],
      "stateMutability": "nonpayable",
      "type": "constructor"
    },
    {
      "anonymous": false,
      "inputs": [
        {
          "indexed": true,
          "internalType": "address",
          "name": "previousOwner",
          "type": "address"
        },
        {
          "indexed": true,
          "internalType": "address",
          "name": "newOwner",
          "type": "address"
        }
      ],
      "name": "OwnershipTransferred",
      "type": "event"
    },
    {
      "inputs": [
        {
          "internalType": "address",
          "name": "wrapperAddress",
          "type": "address"
        }
      ],
      "name": "addSupportedWrapper",
      "outputs": [],
      "stateMutability": "nonpayable",
      "type": "function"
    },
    {
      "inputs": [],
      "name": "carbonCreditERC1155",
      "outputs": [
        {
          "internalType": "contract CarbonCreditERC1155",
          "name": "",
          "type": "address"
        }
      ],
      "stateMutability": "view",
      "type": "function"
    },
    {
      "inputs": [],
      "name": "owner",
      "outputs": [
        {
          "internalType": "address",
          "name": "",
          "type": "address"
        }
      ],
      "stateMutability": "view",
      "type": "function"
    },
    {
      "inputs": [
        {
          "internalType": "address",
          "name": "wrapperAddress",
          "type": "address"
        }
      ],
      "name": "removeSupportedWrapper",
      "outputs": [],
      "stateMutability": "nonpayable",
      "type": "function"
    },
    {
      "inputs": [],
      "name": "renounceOwnership",
      "outputs": [],
      "stateMutability": "nonpayable",
      "type": "function"
    },
    {
      "inputs": [
        {
          "internalType": "address",
          "name": "",
          "type": "address"
        }
      ],
      "name": "supportedWrappers",
      "outputs": [
        {
          "internalType": "bool",
          "name": "",
          "type": "bool"
        }
      ],
      "stateMutability": "view",
      "type": "function"
    },
    {
      "inputs": [
        {
          "internalType": "address",
          "name": "newOwner",
          "type": "address"
        }
      ],
      "name": "transferOwnership",
      "outputs": [],
      "stateMutability": "nonpayable",
      "type": "function"
    },
    {
      "inputs": [
        {
          "internalType": "address",
          "name": "wrapperAddress",
          "type": "address"
        },
        {
          "internalType": "uint256",
          "name": "amount",
          "type": "uint256"
        }
      ],
      "name": "wrapTokens",
      "outputs": [],
      "stateMutability": "nonpayable",
      "type": "function"
    }
  ],
  "bytecode": "0x608060405234801561001057600080fd5b50604051610d0d380380610d0d83398181016040528101906100329190610176565b61004e61004361009560201b60201c565b61009d60201b60201c565b80600160006101000a81548173ffffffffffffffffffffffffffffffffffffffff021916908373ffffffffffffffffffffffffffffffffffffffff160217905550506101e8565b600033905090565b60008060009054906101000a900473ffffffffffffffffffffffffffffffffffffffff169050816000806101000a81548173ffffffffffffffffffffffffffffffffffffffff021916908373ffffffffffffffffffffffffffffffffffffffff1602179055508173ffffffffffffffffffffffffffffffffffffffff168173ffffffffffffffffffffffffffffffffffffffff167f8be0079c531659141344cd1fd0a4f28419497f9722a3daafe3b4186f6b6457e060405160405180910390a35050565b600081519050610170816101d1565b92915050565b60006020828403121561018857600080fd5b600061019684828501610161565b91505092915050565b60006101aa826101b1565b9050919050565b600073ffffffffffffffffffffffffffffffffffffffff82169050919050565b6101da8161019f565b81146101e557600080fd5b50565b610b16806101f76000396000f3fe608060405234801561001057600080fd5b50600436106100885760003560e01c8063a3fe88b51161005b578063a3fe88b5146100ef578063c26de1aa1461010b578063e121433f14610127578063f2fde38b1461015757610088565b80633aed9d861461008d578063715018a6146100ab5780638da5cb5b146100b5578063a084bccf146100d3575b600080fd5b610095610173565b6040516100a291906108df565b60405180910390f35b6100b3610199565b005b6100bd6101ad565b6040516100ca9190610836565b60405180910390f35b6100ed60048036038101906100e89190610709565b6101d6565b005b610109600480360381019061010491906106e0565b6103ed565b005b610125600480360381019061012091906106e0565b610450565b005b610141600480360381019061013c91906106e0565b6104b3565b60405161014e91906108c4565b60405180910390f35b610171600480360381019061016c91906106e0565b6104d3565b005b600160009054906101000a900473ffffffffffffffffffffffffffffffffffffffff1681565b6101a1610557565b6101ab60006105d5565b565b60008060009054906101000a900473ffffffffffffffffffffffffffffffffffffffff16905090565b600260008373ffffffffffffffffffffffffffffffffffffffff1673ffffffffffffffffffffffffffffffffffffffff16815260200190815260200160002060009054906101000a900460ff16610262576040517f08c379a00000000000000000000000000000000000000000000000000000000081526004016102599061091a565b60405180910390fd5b60008290508073ffffffffffffffffffffffffffffffffffffffff1663bf376c7a33846040518363ffffffff1660e01b81526004016102a2929190610851565b600060405180830381600087803b1580156102bc57600080fd5b505af11580156102d0573d6000803e3d6000fd5b5050505060008173ffffffffffffffffffffffffffffffffffffffff1663010a38f56040518163ffffffff1660e01b815260040160206040518083038186803b15801561031c57600080fd5b505afa158015610330573d6000803e3d6000fd5b505050506040513d601f19601f820116820180604052508101906103549190610745565b9050600160009054906101000a900473ffffffffffffffffffffffffffffffffffffffff1673ffffffffffffffffffffffffffffffffffffffff1663731133e93383866040518463ffffffff1660e01b81526004016103b59392919061087a565b600060405180830381600087803b1580156103cf57600080fd5b505af11580156103e3573d6000803e3d6000fd5b5050505050505050565b6103f5610557565b6001600260008373ffffffffffffffffffffffffffffffffffffffff1673ffffffffffffffffffffffffffffffffffffffff16815260200190815260200160002060006101000a81548160ff02191690831515021790555050565b610458610557565b6000600260008373ffffffffffffffffffffffffffffffffffffffff1673ffffffffffffffffffffffffffffffffffffffff16815260200190815260200160002060006101000a81548160ff02191690831515021790555050565b60026020528060005260406000206000915054906101000a900460ff1681565b6104db610557565b600073ffffffffffffffffffffffffffffffffffffffff168173ffffffffffffffffffffffffffffffffffffffff16141561054b576040517f08c379a0000000000000000000000000000000000000000000000000000000008152600401610542906108fa565b60405180910390fd5b610554816105d5565b50565b61055f610699565b73ffffffffffffffffffffffffffffffffffffffff1661057d6101ad565b73ffffffffffffffffffffffffffffffffffffffff16146105d3576040517f08c379a00000000000000000000000000000000000000000000000000000000081526004016105ca9061093a565b60405180910390fd5b565b60008060009054906101000a900473ffffffffffffffffffffffffffffffffffffffff169050816000806101000a81548173ffffffffffffffffffffffffffffffffffffffff021916908373ffffffffffffffffffffffffffffffffffffffff1602179055508173ffffffffffffffffffffffffffffffffffffffff168173ffffffffffffffffffffffffffffffffffffffff167f8be0079c531659141344cd1fd0a4f28419497f9722a3daafe3b4186f6b6457e060405160405180910390a35050565b600033905090565b6000813590506106b081610ab2565b92915050565b6000813590506106c581610ac9565b92915050565b6000815190506106da81610ac9565b92915050565b6000602082840312156106f257600080fd5b6000610700848285016106a1565b91505092915050565b6000806040838503121561071c57600080fd5b600061072a858286016106a1565b925050602061073b858286016106b6565b9150509250929050565b60006020828403121561075757600080fd5b6000610765848285016106cb565b91505092915050565b6107778161097c565b82525050565b6107868161098e565b82525050565b610795816109c4565b82525050565b60006107a860268361096b565b91506107b3826109e8565b604082019050919050565b60006107cb60278361096b565b91506107d682610a37565b604082019050919050565b60006107ee60208361096b565b91506107f982610a86565b602082019050919050565b600061081160008361095a565b915061081c82610aaf565b600082019050919050565b610830816109ba565b82525050565b600060208201905061084b600083018461076e565b92915050565b6000604082019050610866600083018561076e565b6108736020830184610827565b9392505050565b600060808201905061088f600083018661076e565b61089c6020830185610827565b6108a96040830184610827565b81810360608301526108ba81610804565b9050949350505050565b60006020820190506108d9600083018461077d565b92915050565b60006020820190506108f4600083018461078c565b92915050565b600060208201905081810360008301526109138161079b565b9050919050565b60006020820190508181036000830152610933816107be565b9050919050565b60006020820190508181036000830152610953816107e1565b9050919050565b600082825260208201905092915050565b600082825260208201905092915050565b60006109878261099a565b9050919050565b60008115159050919050565b600073ffffffffffffffffffffffffffffffffffffffff82169050919050565b6000819050919050565b60006109cf826109d6565b9050919050565b60006109e18261099a565b9050919050565b7f4f776e61626c653a206e6577206f776e657220697320746865207a65726f206160008201527f6464726573730000000000000000000000000000000000000000000000000000602082015250565b7f436172626f6e4372656469744272696467653a20556e737570706f727465642060008201527f7772617070657200000000000000000000000000000000000000000000000000602082015250565b7f4f776e61626c653a2063616c6c6572206973206e6f7420746865206f776e6572600082015250565b50565b610abb8161097c565b8114610ac657600080fd5b50565b610ad2816109ba565b8114610add57600080fd5b5056fea2646970667358221220fabbc56c8c92e128ac0eef70b8cb953c634d2d60537c79b4319cf04e24b3641764736f6c63430008040033",
  "linkReferences": {},
  "deployedLinkReferences": {}
}